:100000000C94A5010C94C2010C94C2010C947C18B0
:100010000C94C2010C94C2010C94C2010C94C20154
:100020000C94C2010C94C2010C94421F0C94162033
:100030000C94871A0C94C2010C94C2010C94C20156
:100040000C94C2010C94C2010C94C2010C94C20124
:100050000C94C2010C942A1B0C94C2010C94C20192
:100060000C94C2010C94C2010C94C2010C94C20104
:100070000C94C2010C94C2010C94C2010C94C201F4
:100080000C94C2010C94C2010C94C2010C94C201E4
:100090000C94C2010C94C2010C94C2010C94C201D4
:1000A0000C94C2010C94C2010C94C20135001E00D4
:1000B0001F002000210022002B0014001A0009005C
:1000C00013000A002A00040015001600170007009C
:1000D000E1001D001B000600190005000000E30000
:1000E000E00029422C00E2002D0027002600250018
:1000F00024002300310033001C0018000F000D0005
:10010000340012000C00080011000B00E50038005C
:100110003700360010000E000000E700E4002E4318
:100120002800E600010001000100010001000100BB
:100130000100010001000800150017000100010086
:100140001600070009000A0001000100010001007B
:100150000100010000000100010001000100010098
:100160000100010001000100010001000100130075
:1001700012000C0018001C00010033000F000E00DC
:100180000D0001000100010001000100010011004B
:100190000000010001000100010001000100010058
:1001A00001000100010001000100015301000100F4
:1001B0002602270201000100010001002F0030008B
:1001C00001000100010001002F02300200000100C7
:1001D00001000000A800AA0001000100560055001F
:1001E00054005300010001005700610060005F00EF
:1001F0000100010067005E005D005C00010001007D
:1002000058005B005A0059000000010063006200C2
:100210000100A900B5003A003B003C003D003E0053
:1002200001000100010001000100010001000100C6
:1002300001000100010001000100010001000100B6
:10024000010001000000010001002900010001007F
:10025000440043004200410040003F004500490087
:10026000480047004600010001004C004F005200CA
:1002700051005000010001004D004B004E004A00AB
:1002800000000100010000000100010000AE00AF0D
:1002900000DA0281FFD9F1DB20A4A62EAF00A0C0B6
:1002A00000A1C800AED580A81FD300408D14200047
:1002B0000E034C0069006C00790035003800000026
:1002C00010036C0069006C00690075006D0073001C
:1002D00000000403090409022200010100A0FA0938
:1002E0000400000103010100092111010001224065
:1002F0000007058103080001120100020000000848
:10030000D8042DEB00010102000105010906A1013D
:10031000050719E029E715002501950875018102F7
:100320009501750881010507190029FF150026FFB1
:1003300000950675088100050819012905950575C0
:10034000019102950175039101C011241FBECFEFE9
:10035000DAE0DEBFCDBF11E0A0E0B1E0E0E2F5E41D
:1003600002C005900D92A434B107D9F724E0A4E4AB
:10037000B1E001C01D92A736B207E1F70E946712F3
:100380000C9478220C94000081E0089581E0089597
:100390000E94C601089508950E94CB010895A5E02A
:1003A000B0E0E5EDF1E00C94F82149835A833091F7
:1003B0004B0189819A81311119C0662399F022235A
:1003C00089F00E94FB06182F682F89819A810E946C
:1003D000D70669817A81812F0E94520D2596E3E02C
:1003E0000C9414220E94E906182FF3CF0E94FB06FA
:1003F00069817A81F1CFFC01262F40815181628190
:10040000738184810E94CF01089581E00895CF9384
:10041000DF93EC0160E00E94FB01BE010E94CC0171
:10042000DF91CF9108950E94B90E08950E94BD0EEC
:10043000089508950E94A2050E9419022FEF84E3F7
:100440009CE0215080409040E1F700C000000895FA
:100450000E941A020E944E1B08950E941A020E94D6
:100460005F1B08950F931F93CF93DF938C0161E07F
:100470000E94FB01EC01B8010E94C801811106C075
:1004800080E0DF91CF911F910F910895B801CE01C7
:100490000E949E168823A1F3B801CE010E94A214E7
:1004A000882371F3B801CE010E941016882341F30E
:1004B000F8018281882361F0CB35FDE5DF0701F18A
:1004C00058F4C115ECE5DE0791F0CF3DDC4591F025
:1004D000C8010E94C401D5CFCD358DE5D80769F09C
:1004E00090F0C83ADD45A1F70E942D02C9CF0E94C5
:1004F0002802C6CF0E94AE0BF7CF0E94F30AE8CFC6
:100500000E94FD0AE5CF0E94010BE2CF0E94641A0F
:100510000E94A5020E944A1408950E94A9020E9406
:10052000691A089508950E949202089581E008953D
:100530000E94960208950895CF93C82F0E949302B7
:100540008C2F0E949802CF91089580E00E949C0217
:1005500008950E94A2190E949C020895CF930E94C0
:10056000A219C82F809146018C1779F0C0934601DB
:100570000E94F31A609347017093480180934901E8
:1005800090934A018C2F0E949C02CF910895ABE07A
:10059000B0E0EDECF2E00C94F9214F8358876987C5
:1005A0007A878B8761110E943E0A1E821D8285E038
:1005B000FE013796DE01119601900D928A95E1F7C2
:1005C0008C819D81892B61F449815A816B817C8169
:1005D0008D819E810E9467092B96E2E00C94152282
:1005E00089819A8189238F3F79F3CE0101960E94F8
:1005F00005028111E9CFF0CFFC01808191810E9439
:100600002D070895CF93C82F8823B9F08CEF8C0F56
:10061000813AA8F46C2F80910001909101010E9411
:10062000FF19882329F08C2F0E94FE090E945F0A7F
:100630008C2F0E94F6090E945F0ACF91089580E2F4
:100640008C0F8830D0F7C77081E001C0880FCA9541
:10065000EAF70E94210AEFCF882339F19CEF980F27
:10066000913A28F40E94FE090E945F0A089590E2E0
:10067000980F983050F4877091E001C0990F8A95D7
:10068000EAF7892F0E94270AEFCF9BE5980F933056
:1006900028F490E080E00E94C1190895885A8731BB
:1006A00020F490E080E00E94D71908951F93CF9323
:1006B000DF93182FEB010E940203209739F4812F5A
:1006C0000E942C03DF91CF911F9108958FE99FE045
:1006D0000197F1F700C000002197EFCF70E060E0D4
:1006E000893311F460E570E00E9456030895882371
:1006F00021F00E94210A0E945F0A0895882321F0B8
:100700000E94270A0E945F0A0895B0E0A0E0EBE88B
:10071000F3E00C94F2216C01D62FC72FFC0112815B
:10072000F580F2949FE0F9220E94170AE82E8823B0
:10073000B9F0E12E1123A1F08C2F807F803421F0BD
:1007400080E28D0F8830D0F08091370282FF16C092
:1007500082E00E94C20A0E94170A91E0E82EE92670
:10076000BC2EB2948FE0B822FBE0FB1508F468C001
:10077000EB2DF0E0E658FD4D0C94E321E12CF0CF99
:100780000C2F0F70C07F11F00295007F112399F09C
:10079000002359F080E28D0F883010F0D11107C08E
:1007A000802F0E94210A0E945F0A8D2F41C0802F56
:1007B0000E94310AF8CF8D2F0E942C03002309F4E8
:1007C0003FC080E28D0F883010F0D11104C0802F1F
:1007D0000E94270A03C0802F0E94370A0E945F0AE6
:1007E0002FC00C2F0F70C07FC03211F00295007F18
:1007F000DD2381F0D13009F463C0112309F46DC009
:10080000FF2009F463C0F601858180FFCECF8F7091
:1008100085835CC08091370282FD33C0112359F07B
:10082000002329F0802F0E94210A0E945F0A80E0A5
:100830000E94020305C080E00E942C030111C7CF73
:10084000EB2DE850FF0B349720F40E94A2190E9470
:100850009C02EE2089F00E94130A80FD0DC0F60173
:1008600012820E940D0A0E943506C6010E946E0582
:100870000E940D0A0E944506CDB7DEB7E9E00C9450
:100880000E22112389F0F11006C00E94410A802B2C
:100890000E947703D5CF21E0F212F7CF0E94410AE0
:1008A000802B0E94480ACCCFF11006C00E94550A46
:1008B000802F0E947E03C4CF31E0F31609F2F6CFF9
:1008C000112331F085E08F1508F4BACF802FE0CFE7
:1008D00094E09F1508F4B4CFEBCFFF2049F3D93350
:1008E00049F4FFEF27EE33E0F15020403040E1F7CC
:1008F00000C000008D2F0E942C03A2CF8C2F83708C
:10090000A1F511119DCF4D2F429546954770440F8B
:10091000440F2D2F2F7030E0042E02C0220F331F02
:100920000A94E2F790E080E0D4FF09C08FE090E005
:1009300002C0880F991F4A95E2F780959095C69559
:10094000C695C370822B932BC23049F058F4C13046
:1009500019F00E94030674CF0E94FA0571CF0E941D
:100960000C066ECF0E94F7056BCF8695112311F010
:100970008C2F8170882309F463CF4D2F42954695C3
:100980004770440F440F2D2F2F7030E0042E02C00B
:10099000220F331F0A94E2F790E080E0D4FF09C0F1
:1009A0008FE090E002C0880F991F4A95E2F780958A
:1009B0009095C695C695C370822B932BC23049F093
:1009C00058F4C13019F00E9470063ACF0E946706B1
:1009D00037CF0E94790634CF0E941B0631CFCF70EB
:1009E000112329F08C2F0E9435068D2F51CF8D2F8A
:1009F0000E947E038C2F0E94450622CFD23F51F1E8
:100A000060F4D03FB9F0D13F81F0112309F449C01F
:100A1000F110CBCE8C2F8F7121C0D33F11F1D43F79
:100A2000A1F78091370282FD26C08C2F8F71112390
:100A300011F314C0112349F084E08F1508F400CF9E
:100A40008C2F8F710E945706FBCE95E09F1508F4FE
:100A5000F7CEF6CF8C2F8F711111CDCF0E943506B6
:100A6000EFCE112329F08C2F8F710E942906E8CE3A
:100A70000E942406E5CE112349F0CF718C2F0E94ED
:100A8000350663E08C2F0E94A40ADACE81E00E9432
:100A9000C20AE1E0EF1508F0D3CE82E00E94C20A5C
:100AA000CFCEF1101CCF8C2F8F71A5CF0F931F933A
:100AB000CF93DF93EC01688179818A810E943807A6
:100AC0008C010E9482060E94F605B801CE010E94A8
:100AD0008503DF91CF911F910F910895CF93DF93FD
:100AE000EC018B819C81892B29F088819981892354
:100AF0008F3F51F4DF91CF910895CE010E945605AA
:100B0000CE010E940702F6CFCE010E94320281116F
:100B1000F4CF0E94170A882369F38A81882351F34E
:100B20008091370282FFE6CF82E00E94C20AE2CFC4
:100B30000E943E0A0E945F0A08950E94060A0E94CF
:100B4000980508950E942E0A0E949D050895929589
:100B50009F70963091F058F4925F9F70923058F4E5
:100B6000803F19F030F4883E30F481E008959A5FB8
:100B7000F4CF843FD1F380E00895883EB0F3813F05
:100B8000D1F7F3CFFC0183819481892B29F08081F7
:100B9000918189238F3F11F480E0089580819181B4
:100BA0000E942D070E94A7050895A5E0B0E0EBED97
:100BB000F5E00C94F9212596E2E00C941522A6E0CC
:100BC000B0E0E5EEF5E00C94F9212696E2E00C9415
:100BD000152208950E94E90508950E94EA05909360
:100BE0006F0180936E010E949805089508950E94F8
:100BF000ED05089520916E0130916F01822B932BAA
:100C00000E94ED05089520916E0130916F018223BD
:100C100093230E94ED05089520916E0130916F019C
:100C2000822793270E94ED0508950E94E905089503
:100C30000E94150608950E94180690936D018093F6
:100C40006C010E949805089590E080E00E941B06C8
:100C5000089521E030E0A90102C0440F551F8A9594
:100C6000E2F7CA010E941B06089521E030E002C0AD
:100C7000220F331F8A95E2F780916C0190916D01EC
:100C8000822B932B0E941B06089521E030E002C0C6
:100C9000220F331F8A95E2F72095309580916C01E1
:100CA00090916D01822393230E941B06089521E0F9
:100CB00030E002C0220F331F8A95E2F780916C0169
:100CC00090916D01822793270E941B060895209121
:100CD0006C0130916D01822B932B0E941B060895AD
:100CE00020916C0130916D01822393230E941B0699
:100CF000089520916C0130916D01822793270E9405
:100D00001B0608950895262F277091E001C0990FC2
:100D10002A95EAF723E0769567952A95E1F7660F1D
:100D2000771F660F771FFA01E60FF71F50E040E0CC
:100D3000682F70E08191DF0111979B01042E02C0A2
:100D4000369527950A94E2F72170219528272923C3
:100D500028272C934F5F5F4F4430510559F7089572
:100D6000A82FA77023E0969587952A95E1F7880F1D
:100D7000991F880F991FFB01E80FF91F50E040E011
:100D800080E0219130E00A2E02C0369527950A9422
:100D9000E2F721703327042E01C0220F0A94EAF7EC
:100DA000822B4F5F5F4F4430510559F70895262F2E
:100DB0009A3070F4863060F4682F70E086E0989F77
:100DC000600D711D11244CE451E0822F0E948306B6
:100DD0000895292F9A3068F4863058F490E06CE436
:100DE00071E036E0239F800D911D11240E94B00612
:100DF000089580E00895B0E0A0E0E1E0F7E00C9411
:100E0000F2217C0100916C0110916D0180916E01C5
:100E100090916F01082B192BCFE0D0E0CC24C39424
:100E2000D12CBC2EC6010C2E02C0880F991F0A942B
:100E3000E2F780239123892B49F4219790F7B12C75
:100E40008B2DCDB7DEB7E9E00C940E22B7018C2FC5
:100E50000E946D0D019789F3F3CFCF93DF93EC01DF
:100E60000E94FB06BE010E946D0DDF91CF91089597
:100E70001F93CF93DF93EB0190914B01992339F0AE
:100E8000CB010E942D07DF91CF911F9108958823F8
:100E900069F0CB010E94FB06182F682FCE010E943B
:100EA000D706BE01812F0E946D0DEDCFCB010E94B0
:100EB000E906182FF6CF1F93CF93DF93C0917001EF
:100EC00016E0809171018C1304C0DF91CF911F91C6
:100ED0000895D0E01C9FF0011D9FF00D1124EE58E5
:100EE000FE4F4081518162817381848195810E948E
:100EF000DF052196C770E5CF4091A2015091A30173
:100F00006091A4017091A5018091A6019091A70123
:100F10000E94DF0508951F93CF93DF938091A7016F
:100F2000807F09F049C08091A401882309F444C05E
:100F300080917001C09171016091A2017091A30133
:100F4000A091A501B091A601D62FD72316E0C8170E
:100F500099F190E0109711F0DF3F19F40196877036
:100F6000F6CF189F9001199F300D1124F901EE580A
:100F7000FE4F41814713F2CF40814613EFCF4281AC
:100F80004111ECCF438154814A1B5B0B483C510516
:100F900028F78091A7018F7080618093A701F901E4
:100FA000E958FE4F80818F708061808382EA91E0F2
:100FB0000E946E050E945B07DF91CF911F910895FB
:100FC000A1E1B0E0E6EEF7E00C94F1218C0185E0C0
:100FD000F801DE011D9601900D928A95E1F7F80166
:100FE000E28082EAC82E81E0D82E6091A50170913E
:100FF000A6016115710509F44EC19091A2012091DD
:10100000A301892F82238F3F09F445C1408151817B
:10101000A380B480F090A401F501E61BF70BFF203C
:1010200009F4EAC08091A701382F307FE83CF10530
:1010300008F0A3C031116DC0FE2C251316C0941307
:1010400014C0E11012C08F7080618093A7010E94CC
:101050007C07C6010E946E058091A701F801858377
:101060008F2D6196EAE00C940D22A114B10429F0B1
:10107000842F85238F3F09F027C180E0F82FF1707E
:10108000DF2E80FF3CC0809170012091710136E01D
:10109000821315C04D875E878D859E850E942D0722
:1010A000292F22952F702230F0F0243018F59F70F0
:1010B000F1F0F8019581907FD1F4D12C1EC090E021
:1010C000389FF001399FF00D1124EE58FE4F6181D9
:1010D000651306C06081641303C06281E6120FC00D
:1010E00001968770D5CF9F7011F0882331F3805E11
:1010F000883018F3C8010E946E05FD2CB1CFEE2098
:1011000009F4AECF8091A70181608093A701F12CF3
:10111000A7CF251306C0941304C0F801EE2009F4EC
:1011200087C0C8010E94C205882319F1EE2009F189
:101130008091A701803270F02091A2013091A3012B
:1011400038872F831986BB86AA868C87CE0107969F
:101150000E946E0586E0F801A2EAB1E001900D92CE
:101160008A95E1F70E948B070E947C07FF24F39485
:1011700077CFC8010E946E05F9CF311113C07A2DC7
:10118000B98AA88A6E2D89890E94D50582EA91E0E4
:101190000E946E0586E0F60111928A95E9F70E9499
:1011A0007C07B5CF25130FC094130DC0E1100BC001
:1011B000F8018583C8010E946E0586E0F601119250
:1011C0008A95E9F74DCFC8010E94C205882389F2AC
:1011D000EE2079F28091A701803208F4BBCF2091F4
:1011E000A2013091A3013A8329831B82BD82AC8284
:1011F0008E83CE010196ACCFE83CF10508F03EC0ED
:10120000FE2CEE2009F4B5CF25132AC0941328C074
:101210008091A70180FD1BC0982F907FC1F0F8013D
:101220008583903F31F0982F907F905F8F70892B4E
:101230008583C8010E946E0586E0F801A2EAB1E04C
:1012400001900D928A95E1F70E947C0709CF86E014
:10125000F801A2EAB1E001900D928A95E1F700CF82
:10126000C8010E94C205811175CF8091A7018160DC
:101270008093A701C8010E946E05F2CE7A2DB98A2B
:10128000A88A6E2D89890E94D50586E0F601119203
:101290008A95E9F7D9CFEE2009F46BCFC8010E94F7
:1012A000C205F82E882309F464CF86E0F801A2EA8B
:1012B000B1E001900D928A95E1F782EA91E00E94F7
:1012C000FC020E948B07C0CF81E08E25D7CEACE018
:1012D000B0E0EDE6F9E00C94F8214F835887698778
:1012E0007A878B879C87CE0107960E94E007882328
:1012F00069F08A859B85892B39F04F815885842F29
:1013000085238F3F09F06BC016E05FC086E0FE01C9
:101310003796DE01119601900D928A95E1F78A8544
:101320009B85892B89F388859F8189238F3F61F372
:101330002091710130E0C901019687709927409191
:1013400070014817190671F40E94A20510927101EC
:101350001092700186E0E2EAF1E0DF011D928A95C9
:10136000E9F7D2CF96E0929FD001939FB00D112460
:10137000AE58BE4FFE01319601900D929A95E1F75D
:10138000809371010E945B07BFCF819FC001112430
:101390008E589E4F0E94E0078823E9F0E09170018B
:1013A0001E9FF0011124EE58FE4F40815181628151
:1013B0007381848195810E94DF058091700190E0A6
:1013C00001968770992780937001809170019091A8
:1013D00071018913DACF2C96E3E00C94142269850D
:1013E0007A858B859C850E94DF058ECF682F809142
:1013F0000001909101010E94351A0895682F809193
:101400000001909101010E94381A08958091000115
:10141000909101010E943B1A08958091B001859539
:101420008595859508958091B00187700895909174
:10143000B001977081E009F480E008958091BB01CC
:1014400008959091BB01892B8093BB0108958095ED
:101450009091BB0198239093BB0108951092BB011A
:1014600008959091BA01892B8093BA0108958095CF
:101470009091BA0198239093BA0108951092BA01FD
:1014800008958091B101089508950E94440A089535
:101490009091370292FF08C09091B101981721F006
:1014A0008093B1010E94450A08958091B10188237B
:1014B00029F01092B10180E00E94450A0895CF936F
:1014C000DF93E0910001F09101018091BB018083E5
:1014D000E0910001F091010180819091BA01892B86
:1014E00080839091B101992381F0E0910001F09106
:1014F00001018081892B80838091000190910101FD
:101500000E94ED1981110E94550AC0910001D091ED
:10151000010148E050E068EA71E0CE010E9420221B
:10152000892B59F088E0FE01A8EAB1E001900D9204
:101530008A95E1F7CE010E94B619DF91CF91089507
:1015400008950E94A00A08959091370292FF11C059
:1015500098E0899F90011124622B6093B0010E9452
:1015600035068091B0018595859585950E94A10AE3
:1015700008950E94350608951092B00180E00E94FF
:10158000A10A08959091B001809589238093B001BC
:10159000282F277091F4282F082E000C330B921758
:1015A000130659F09091370292FF07C085958595F3
:1015B00085950E9445060E94BC0A089590913702C5
:1015C00092FB222720F9281769F080FB92F990936B
:1015D000370280913602909137020E94280B82E0F8
:1015E0000E94C20A08958091370282FB882780F901
:1015F00091E089270E94DE0A089581E00E94DE0AB8
:10160000089580E00E94DE0A089590E080E00E9444
:101610003E2221E0883E9E4F09F020E0822F08956F
:1016200082E090E00E943622089583E090E00E94DC
:1016300036220895CF9384E090E00E943622C82F8E
:1016400082E290E00E943622982F8C2FCF9108954D
:10165000CF93C92F682F84E090E00E9444226C2F22
:1016600082E290E00E944422CF910895AB01BC0138
:101670008FE090E00E9456220895AB01BC0183E107
:1016800090E00E945622089560E070E0CB010E9435
:101690003D0B089560E070E0CB010E94360B0E9484
:1016A000440B089568EE7EEF90E080E00E94622295
:1016B00060E082E090E00E94442260E083E090E0FD
:1016C0000E94442210926F0110926E0160E084E04B
:1016D00090E00E94442264E082E290E00E94442272
:1016E00060E085E090E00E94442260E086E090E0C7
:1016F0000E9444226FEF87E090E00E94442240E085
:1017000050E0BA0188E090E00E94562260E08DE04F
:1017100090E00E94442240E050E0BA0188E190E06D
:101720000E94562260E087E190E00E94442240E05F
:1017300050E0BA018CE190E00E94562270E060E037
:1017400080E290E00E94622240E050E0BA0188E12D
:1017500090E00E9456220E944A0B08950E94520B6C
:101760000895682F8EE090E00E94442208950E9420
:10177000F31A6093CC017093CD018093CE019093C6
:10178000CF016093C8017093C9018093CA019093FF
:10179000CB010895089508950E94CB0B08950895F4
:1017A0000E94CF0B089587E99EE00E9498190E943D
:1017B000CA0B0E94CC0B08950E94631008950895EF
:1017C00008950E94DF0B0E94E00B08950E949A0E7C
:1017D0000E949B0208950E94DE1A0E94570E0E94EA
:1017E0007E100E94C40F0E94E60B0E94741280E0DB
:1017F0000E94CF120E9488100E94D00B0895AAE088
:10180000B0E0E5E0FCE00C94F1210E94E70F8EEBE4
:10181000A82E81E0B82E750110E0F70101917F013B
:10182000812F0E94C00E1F5F1A3009F441C00817B3
:10183000A1F38091D00181FD0E94C60E0E94DC0BB5
:10184000C82E10E0812F0E94C00E082FF501819153
:101850005F01081731F1F12CEE24E394D02ED82645
:101860008D2D8E21B1F0CC20A1F0FE821F8391E05E
:10187000802F8E2109F490E098870E94E71A8160FA
:10188000782F9A8789874E815F8168858A850E9433
:10189000C702F394EE0CF6E0FF12E2CFF5013197A8
:1018A00000831F5F1A3071F60E94B70B11E021C050
:1018B0000813BFCF0E94E71A8C018091BC01909160
:1018C000BD0108171907A1F08FEF89838A831B8256
:1018D0000E94E71A8160782F9D838C8349815A8109
:1018E0006B818D810E94C7021093BD010093BC01E2
:1018F00010E00E9463100E946A1411110E942E13BE
:101900000E94AE022A96EAE00C940D22CF93DF9358
:101910000E94720DEC01811523E5920790F5811567
:1019200032E5930708F08DC0811540E29407C8F4B2
:10193000C11581E0D80788F4C53AD10548F4C43010
:10194000D10558F4C130D10541F0D0E0C0E005C068
:10195000CE01805E91090897C0F7CE01DF91CF914B
:101960000895811521E5920708F066C0811530E5DC
:10197000930708F04EC08115904438F3DF70D06AA9
:10198000ECCFC11586E5D807F0F4C11525E5D207DF
:1019900008F06FC0C11534E5D30708F065C0CE016B
:1019A0008370992721E030E002C0220F331F8A950F
:1019B000E2F7C695C69540E2C49FE0011124C22B10
:1019C000D32BDA68CACFC1154AE5D40778F4C1151C
:1019D00089E5D80708F058C0C11528E5D20708F4F2
:1019E000B4CFDC2FCC27C06FD06AB7CFCE019056D2
:1019F0008115904208F0A9CF8D2F8F710E94140E8F
:101A000090E0982F882788279F719C012C2BE90153
:101A100039C08370992721E030E002C0220F331FC4
:101A20008A95E2F7C695C69540E2C49FE00111246D
:101A3000C22BD32BDD6891CFD82FCC27C16FD06AB2
:101A40008CCF8370992721E030E002C0220F331F32
:101A50008A95E2F7C695C69580E2C89FE0011124F9
:101A6000C22BD32BDC6879CFDC2FCC27C46FD06A94
:101A700074CF8C2F0E94140EC82FD0E0DC2FCC27FF
:101A8000CC27DF71D06269CF8C2F8F700E94140E2B
:101A900034E0D695C7953A95E1F7CF709C2FEC01CD
:101AA000D0695BCF972F7A30A8F4663098F470E055
:101AB00026E0929F600D711D1124FB019CE3899F1C
:101AC000E00DF11D1124EE0FFF1FE455FF4F85912E
:101AD0009491089580E090E008950E94520D0E9434
:101AE000860C089582389105B9F1B0F481339105DF
:101AF00009F47DC048F48932910509F46DC08A3239
:101B0000910509F47BC008958533910509F45FC000
:101B10008933910509F10895833E9105D9F138F48F
:101B2000803E910529F1823E910579F10895863E26
:101B30009105D9F1873E910509F43EC0843E910597
:101B400041F52091370221FF24C08091360284FDA7
:101B500019C087EE90E0089520913602237009F0B5
:101B60005AC02091370223FF14C089E290E0089503
:101B70002091360220FD38C03091370230FF09C075
:101B800024FF43C090E080E008952091360222FDBA
:101B9000F7CF08952091360222FD3AC030913702E6
:101BA00030FD39C024FFF5CFEDCF2091360223FF61
:101BB000F0CF24FDE7CFCDCF2091360223FD2EC0FC
:101BC0003091370231FFEECF84EE90E008952091FE
:101BD000360225FFDECFC9CF2091360225FD21C078
:101BE0002091370223FFD5CF89E390E0D2CF209117
:101BF000360226FFCECF8AE290E008952091360289
:101C000026FFC7CF81E390E0089583EE90E008952A
:101C100082EE90E0089580EE90E0089586EE90E0E8
:101C2000089585E390E008959091360292FF06C0F2
:101C3000282F28712830F9F4877F846093FF06C02D
:101C4000282F28712831F1F4877E84612091370292
:101C500020FF06C0382F38713830D9F4877F816073
:101C600021FF06C0282F28712831D1F4877E816199
:101C700094FD877E0895282F24712430F9F68B7FF8
:101C80008860DCCF282F2471243101F78B7E886196
:101C9000DDCF382F3171313019F78E7F8860E0CF7A
:101CA000282F2171213121F78E7E8861E1CF10929A
:101CB00032021092330210923402109235020895CB
:101CC000CF92DF92EF92FF926B017C010E94631032
:101CD00081110EC00E94F31AC61AD70AE80AF90A3F
:101CE000C0923202D0923302E0923402F092350276
:101CF000FF90EF90DF90CF9008950F931F930E9475
:101D00006310882329F00E94F31A1F910F91089500
:101D10000E94F31A00913202109133022091340292
:101D200030913502600F711F821F931FEECF80E04C
:101D3000089508950E94050B811102C00E94AE0B08
:101D40000E94100B8093D0010E941A0B90933702CF
:101D5000809336020E94990E0E94150B90E00E941B
:101D6000F70580916C0190916D010E94180608950D
:101D700008950E94B80E089508950E94BC0E08951B
:101D8000E82FF0E0ED5BFD4F80810895089580EA33
:101D90008A95F1F7089500C008950E94C70E08952E
:101DA00008950E94D00E0895A5E0B0E0EAEDFEE0AF
:101DB0000C94F5210E946310F82E60914D02882347
:101DC00009F440C085E0E82E8E010F5F1F4FF80137
:101DD0008E2D11928A95E9F7862F90E0B8018D5BE0
:101DE0009D4F0E9496108823B9F08091380290E0B0
:101DF00045E050E0B8018D5B9D4F0E94202221E01C
:101E00002093D101892B91F4F12C0E9416028F2D81
:101E10002596E6E00C9411228091D1018823A1F34C
:101E2000F8011192EA94E9F71092D101A0913802D9
:101E3000B0E0AD5BBD4F85E0F80101900D928A9551
:101E4000E1F7E3CF70E06D5B7D4F8091380290E069
:101E50008D5B9D4F0E941D110E94D10ED8CFF8942A
:101E6000E82FE295EF70F0E031A1282F2F7081E08C
:101E700090E001C0880F2A95EAF7982F9095932358
:101E800091A392A1892B82A3789408950F931F9315
:101E9000CF93DF93C5E3D1E089918F3F11F00E948A
:101EA0002F0F81E0CA33D807B9F7CFE2D1E005E3BD
:101EB00011E089918F3F11F00E942F0F0C171D0721
:101EC000C1F7DF91CF911F910F910895B0E0A0E08D
:101ED000ECE6FFE00C94F321EC01D62E062F10E087
:101EE000C8018B5C9E4F7C01FC0180818F3F09F40F
:101EF00044C0F894E82FE295EF70F0E091A18F7064
:101F000021E030E001C0220F8A95EAF7892F822B69
:101F100081A382A12095282322A378940E94CB0E2E
:101F2000EFE2F1E031E0C12C21912F3F59F1A22FD6
:101F3000A295AF70B0E090968C9190E02F7002C0A7
:101F4000959587952A95E2F780FD1CC0832FC82AB6
:101F5000330F81E0E533F80739F7F70180818F3FD0
:101F600011F00E942F0F61E0C11001C060E08D2DC3
:101F70000E94CD0EC00FD11FC882CDB7DEB7E8E0FA
:101F80000C940F2280E0E3CF809102018091020146
:101F900095E0811190E090934D0285E0891B80933C
:101FA00038020E94460F8AE0E3E4F2E0DF01982F56
:101FB0001D929A95E9F7E9E3F2E0DF011D928A9517
:101FC000E9F785E00E9425100E9413020895AAE017
:101FD000B0E0EDEEFFE00C94F6218E010F5F1F4F95
:101FE0008AE0F80111928A95E9F7F12C6F2DC8016A
:101FF0000E94660FF394F5E0FF12F8CF4AE050E03C
:10200000B80189E392E00E94202221E0009709F4C0
:1020100020E0892B41F08AE0F801A9E3B2E00190C9
:102020000D928A95E1F760914D0270E06D5B7D4FF6
:1020300045E089E392E00E942610182F0E94D40EFA
:10204000812B2A96E5E00C9412220895CF92DF921C
:10205000EF92FF920F931F93CF936C017B01042F9C
:10206000222349F081E08093D4010E94E71A9093E3
:10207000D3018093D201C091D401C1110AC0C0E044
:102080008C2FCF911F910F91FF90EF90DF90CF9009
:1020900008958091D2019091D3010E94FF1A059773
:1020A00070F310E0A801B601C7010E942022892B1D
:1020B00041F0A801B601C7010E942D221092D4015F
:1020C000DFCFC0E0FBCF8091D701811107C00E9414
:1020D000C221882351F081E08093D70181E0909163
:1020E000D701913009F080E0089582E08093D70114
:1020F0000E94BD21F3CF0E94631008950E947B10BF
:10210000809302010E94631081110E94CC100895F7
:102110000E946310811102C00E94CF10089581E0D7
:102120009091D8019A3008F080E008950F931F93A2
:10213000CF93DF93EC018B018091D8018A30B8F402
:10214000B801CE010E941A11C82F811122C08091BE
:10215000D8018F3FB9F40E94E71A9093D60180937B
:10216000D5018C2FDF91CF911F910F910895809110
:10217000D5019091D6010E94FF1A843F914000F74B
:10218000C0E0EFCF8F5F8093D8018A3020F7C1E0A5
:10219000E8CF1092D801E5CF0E94361808950E942A
:1021A00039180895B0E0A0E0E8EDF0E10C94F421D6
:1021B0007901C82F880FDD0B41155105A9F0FE01EB
:1021C00093E0EE0FFF1F9A95E1F7ED5FFE4F8181DF
:1021D000928187529E4F208130E04217530708F4C6
:1021E0009A01A9010E942D22CE010E942219D82E07
:1021F0008823D1F001151105B9F083E0CC0FDD1F64
:102200008A95E1F7FE01ED5FFE4F438150E0041730
:10221000150708F4A801CD5FDE4F6C817D81675200
:102220007E4FC7010E942D228D2DCDB7DEB7E7E08E
:102230000C9410220E940C1208950E9423120895FB
:10224000A4E0B0E0E6E2F1E10C94F7216091F00146
:102250007091F1018091F2019091F3010E940E1BA7
:1022600011E0643671058105910518F10E947D0E1B
:102270006E5F7F4F8F4F9F4F69837A838B839C83E1
:1022800010E000E030E020E044E050E0BE016F5F8D
:102290007F4F82E00E94D210182F882351F00E94B5
:1022A000F31A6093F0017093F1018093F20190931F
:1022B000F301812F2496E4E00C941322B0E0A0E017
:1022C000E4E6F1E10C94F1217C015B016A010E94DA
:1022D0008F1001E010E0882311F00AE010E0C1E067
:1022E000D0E0B501C701F6010995811104C021961E
:1022F0000C171D072CF4CDB7DEB7EAE00C940D22C5
:10230000CC9F9001CD9F300D300D112490E080E0E6
:1023100045E34A95F1F70000019682179307C1F74C
:10232000E0CFA6E0B0E0E7E9F1E10C94F1217B0118
:10233000C0903A01D0903B0101E010E09E012A5F7D
:102340003F4F50E040E070E060E080E00E94D2103B
:10235000182F882309F448C056018FEFA81AB80A2D
:102360006091EC017091ED018091EE019091EF018F
:102370000E940E1B643671058105910568F105E028
:1023800010E09E012F5F3F4F50E040E070E060E0C2
:1023900081E00E94D210D82E65E070E0C5010E9455
:1023A000751211E09E81981310E01D2141F10E94E9
:1023B000F31A6093EC017093ED018093EE0190931A
:1023C000EF0185E0FE013196A7EEB1E001900D929C
:1023D0008A95E1F711E013C065E070E0C5010E9445
:1023E00075129E818913CBCF85E0F6013196DE010F
:1023F000119601900D928A95E1F71111E2CF85E0D7
:10240000E7EEF1E0D70101900D928A95E1F7812F77
:102410002696EAE00C940D220F931F93CF93DF933F
:10242000EC018B0141E951E10E945E11882331F0FA
:1024300040E251E1B801CE010E945E11DF91CF91DF
:102440001F910F9108950F931F93CF93DF93C09126
:102450003A01D0913B01CE01019625E0FB01DC0160
:1024600001900D922A95E1F765E070E00E947512E7
:1024700088836E817F81888599850091E301109121
:10248000E4012091E5013091E601601771078207B0
:10249000930751F06093E3017093E4018093E501A9
:1024A0009093E6010E94600EDF91CF911F910F91F2
:1024B00008950E94AA1C0E94EB0B0E94B71C08956D
:1024C0000E94BC1C0E94FF0B0E94D61C08950E9413
:1024D000801A0E94901C0E94D30B0E9459120E94E5
:1024E00060120E94E10BFBCF0895FC01680F791F79
:1024F0008FEF91E3E617F70709F4089521918227FA
:1025000028E030E087FF06C0880F89272150310975
:10251000C9F7F0CF880FFACFB0E0A0E0E2E9F2E12E
:102520000C94F3216C017B0164E670E088E70E9463
:10253000F616EC0197FD12C010E000E0F601E00F86
:10254000F11F849164E670E00E946217EC01892B10
:1025500029F40F5F1F4F0E151F0581F70E94D81732
:10256000CE01CDB7DEB7E8E00C940F2208950E94AB
:10257000B6120895EEE4F2E080E092E0DF019C0103
:102580001D9221503040E1F7F0935504E09354043C
:102590008FEF9FEF90931A028093190208950E9483
:1025A000B6120E94B7128093150280FD0FC080E81A
:1025B000809314020E94F0166DE070E083EA92E0CE
:1025C0000E948C12892B21F080E0089580E2F0CFE8
:1025D0008091150263E070E081FD26C080EA92E000
:1025E0000E948C12892B81F76DE070E080E992E007
:1025F0000E948C12892B41F70E94F31A605A754190
:102600008F4F9F4F609350047093510480935204F6
:10261000909353040E94BA1281E080931802809331
:1026200017021092160208958DE992E0D9CF2091F9
:10263000140236E0839FC0011124629F800D911D1A
:102640001124811522E0920714F090E080E0825B73
:102650009D4F9093550480935404089580911802DF
:10266000811103C08091170208950E94F31A605AE5
:1026700075418F4F9F4F6093500470935104809326
:10268000520490935304809117028111EBCF62E0C2
:1026900070E08EE892E00E948C12892B19F781E09D
:1026A00080931702DFCF2F923F925F926F927F92BB
:1026B0008F929F92AF92BF92CF92DF92EF92FF9252
:1026C0000F931F93CF93DF9380911802882369F0B3
:1026D0002091190230911A022115310531F08091B3
:1026E000160261E070E0882399F0DF91CF911F918D
:1026F0000F91FF90EF90DF90CF90BF90AF909F90A1
:102700008F907F906F905F903F902F9008958F5F94
:10271000082F10E01B01082E02C0220C331C0A9463
:10272000E2F7A90142215321452B89F3909115022B
:1027300090FD44C08295880F807680931D0198019A
:10274000369527953695279520932001815E8093B5
:102750001E011092210124E630E047E050E06BE1D9
:1027600071E088E70E949017892B09F0BECFA8017D
:1027700025E0440F551F2A95E1F78091150280FD51
:102780002BC0425B5D4F04E610E020E230E060E4E5
:1027900088E70E94B117892B09F0A7CF0E942E135A
:1027A000E101C095D0958091190290911A02C82339
:1027B000D923D0931A02C093190297CF880F880F9C
:1027C000880F80931D0110922001895F80931E0164
:1027D00083E080932101BFCFE4EFF1E080E2DF01ED
:1027E0001D928A95E9F7A0E4B1E00CE311E084E4DE
:1027F000C82E81E0D82E97E0592E772473948D91BE
:10280000E80129918E01240F352F311D225B3D4FA8
:10281000E82FF0E0EC50FE4F90E080E0652C681A65
:10282000872C082E01C0880C0A94EAF77901A12CA4
:10283000E701B9907E01B820662D6A196770962E5F
:10284000062E000C770BDB2D01C0DD0F9A94EAF702
:102850007195619571096770772701C0B6946A9583
:10286000EAF7BD2A6081962E9B289082A39468E0A7
:10287000A612DECF019631968830910579F6CA16F8
:10288000DB0609F0BCCF04E610E020E230E044EFC4
:1028900051E07DCF8091170290911802911103C0F1
:1028A00091E089270895882369F062E070E08CE860
:1028B00092E00E948C12892B19F0809117020895E2
:1028C0001092170280911702EBCF81E008950E94C9
:1028D000651408950F931F9380911802882379F14E
:1028E00080914E0490914F040E94FF1AC29760F0AD
:1028F0000E94E71A90934F0480934E0460E080E0BA
:102900000E9417130E9467140E94531380911702AC
:102910008823A9F00E94F31A0091500410915104E9
:102920002091520430915304601B710B820B930B66
:102930006F3F7F4F8F4F9F4710F40E944A141F91A3
:102940000F910895CF93DF93EC01FB0182818823DF
:1029500009F464C1C430FDE5DF07E0F5CB3F9CE539
:10296000D90730F49E0122503C4524313105D8F579
:102970000E941A0B9093370280933602C231ECE525
:10298000DE0709F41FC108F06EC0C9308CE5D80716
:1029900009F4F2C008F03FC0C530ECE5DE0709F4E9
:1029A000DBC058F5C3308CE5D80709F4CDC008F07A
:1029B000CFC0809136028160C230DC4509F4AEC0E0
:1029C00080913602909137020E94280B0E94A20546
:1029D00080E009C0C63AEDE5DE0751F238F4C236B0
:1029E0009DE5D90729F2DF91CF9108959E012E5AD6
:1029F0003D4523303105B8F7BBCF80913602806268
:102A0000C730FCE5DF0709F489C008F4B1C0809144
:102A10003602806483C0CD309CE5D90709F4BAC082
:102A200070F4809136028E7FCB30FCE5DF0709F42D
:102A300075C008F4A7C0809136028D7F6FC0CF307B
:102A40009CE5D90709F4B6C008F4A8C0C031FCE57C
:102A5000DF0709F4B3C0C131DC4509F0B1CF809183
:102A600036028F7B5BC0C1159DE5D90709F4B4C060
:102A700098F5CB3FFCE5DF0709F472C0B8F4C43128
:102A80009CE5D90709F4B6C008F4A2C0C531DC45FD
:102A900009F096CF8091360282FB992790F921E0C8
:102AA000922790FB82F990FB83F938C0CD3F8CE5EB
:102AB000D80709F477C008F457C0CE3FECE5DE072D
:102AC00009F474C0809137028360CF3FDC4509F080
:102AD00077CF8093370274CFC2368DE5D80709F4DB
:102AE00096C068F4C230EDE5DE0709F48CC008F446
:102AF00077C0C330DD4509F063CF80E085C0CE3AB2
:102B00009DE5D907E9F068F490913602892F8E7F10
:102B100090FF8160C63ADD4509F052CF80933602BE
:102B20004FCFCF3A8DE5D80789F1C03BDD4509F09D
:102B300047CF90913702892F877F93FF8860C9CF55
:102B4000809137028860C5CF809136028260E6CFDF
:102B5000809136028460E2CF809136028860DECFB9
:102B6000809137028160B5CF809137028260B1CF0A
:102B7000809136028061D2CF0E94A20580913602F8
:102B80008068CCCF809136028C60C8CF80913702AC
:102B9000877F9FCF809136028B7FC0CF8091360296
:102BA000877FBCCF809137028E7F93CF8091370291
:102BB0008D7F8FCF809136028F7EB0CF809136028D
:102BC0008F7DACCF0E94A205809136028F77A6CF71
:102BD00080913602837FA2CF809137028C7F79CF9C
:102BE00080913702982F909591708E7F892B90FB62
:102BF00081F96FCF0E94A20590913602892F97FB31
:102C000087F980588BCF81E00E94B10BD9CE90918B
:102C10003602892F8F7E94FF806180CF81E0E3CEE2
:102C2000CF93DF93EB0186319C4511F50E941E0A7C
:102C30009A81992399F08A7A91E009F490E090932F
:102C40001B02811109C089E20E94F6090E945F0AF5
:102C500080E0DF91CF91089585E3F6CF80911B024C
:102C6000811104C089E20E94FE09F0CF85E3FBCF09
:102C700081E0EFCF0F931F93CF93DF93C42FD22F19
:102C8000FC0182818823C9F040931E020E94E71A4A
:102C900090931D0280931C0280E28C0F883040F4D8
:102CA000C77081E001C0880FCA95EAF70E947703D8
:102CB000DF91CF911F910F91089510911E0214136F
:102CC00032C080911C0290911D020E94FF1A883C24
:102CD000910548F5C0E2CD0F1D17B9F080E2810FD4
:102CE000883040F4177081E001C0880F1A95EAF728
:102CF0000E947E03C83048F481E09D2F977001C088
:102D0000880F9A95EAF70E947703802F0E946E033E
:102D1000C83070F6D77081E001C0880FDA95EAF705
:102D20000E947E03C5CF80E28C0F883008F6C77002
:102D300081E001C0880FCA95EAF7F2CF0F939C019A
:102D4000CB01243F4CE5340759F1A8F4293DFCE5BB
:102D50003F0701F12A3D4CE53407D1F1283D3C45C0
:102D600091F406E221EE41EE68ED7CE50E943A1610
:102D700080E00F910895263FFCE53F07E9F0B0F0B1
:102D8000273F3C45F9F0FC018281882339F11092FC
:102D90001E02EFCF07E225EE45EE69ED7CE5E6CFBA
:102DA00006E221EE40EE64EF7CE5E0CF07E225EE9F
:102DB00044EE65EF7CE5DACF06E221EE42EE66EF07
:102DC0007CE5D4CF07E225EE46EE67EF7CE5CECF7B
:102DD00008E221E045EE6AED7CE5C8CF81E0C9CF8D
:102DE0001092B9008CE08093B8000895B0E0A0E0A4
:102DF000ECEFF6E10C94F021B82EEB010E94E71AFB
:102E00006C01EE24E394F12CC431D10560F025E08F
:102E1000E22EF12CCF3FDC0731F0CE0164E170E00F
:102E20000E94CF217B0184EAA82E94E8992E10926B
:102E3000BC00A092BC000E94E71A8C018091BC00EB
:102E400087FF0DC08091B900887F8830F9F08091AC
:102E5000B900887F8031D1F00FEF1FEF08C0C801A3
:102E60000E94FF1AE816F90648F70EEF1FEFCF3F52
:102E7000DC07E9F2C6010E94FF1AC817D907B8F6A5
:102E8000C801CDB7DEB7EBE00C940C22B092BB00CA
:102E90009092BC000E94E71A8C018091BC0087FFD1
:102EA0000AC08091B900887F883111F08034A1F682
:102EB00010E000E0E5CFC8010E94FF1AE816F9060D
:102EC00060F7D3CF0F931F93CF93DF93EB018093E2
:102ED000BB0084E88093BC000E94E71A8C018091BB
:102EE000BC0087FF11C02091B900287F81E090E0ED
:102EF000283211F490E080E0919581959109DF915D
:102F0000CF911F910F910895CF3FDC0741F3C80186
:102F10000E94FF1AC817D90710F78EEF9FEFEFCF67
:102F2000B0E0A0E0E6E9F7E10C94F3216B018A013F
:102F30007901B9010E94F616E6010C0D1D1DC0179E
:102F4000D10711F097FF08C024E92093BC00CDB74A
:102F5000DEB7E8E00C940F22B70189910E94621756
:102F6000EECFB0E0A0E0E7EBF7E10C94F321C62F41
:102F70006A017901B8010E94F61697FD0CC0B801EC
:102F80008C2F0E946217E601EC0CFD1CCE15DF05AC
:102F900011F097FF08C024E92093BC00CDB7DEB73D
:102FA000E8E00C940F22B80189910E946217EECFDD
:102FB00084E98093BC0008958EE14A9B02C0815051
:102FC000E1F74A9BFECF08955A9880E28A95F1F77F
:102FD0005A9A0895FC013BE03A95F1F798E020E019
:102FE00080E031E040E14A95F1F7880F4A9B02C04A
:102FF0008160232742E04A95F1F7000040E14A95BD
:10300000F1F7915079F790E19A95F1F799B132E0A3
:103010003A95F1F7000040E14A95F1F792FB9927C4
:1030200090F992272081920F90830895A1E0B0E05B
:10303000ECE1F8E10C94F52119828C017C01E60E9B
:10304000F11C0E151F0541F481E09981911180E07A
:103050002196E6E00C9411220E94DC17CE01019625
:103060000E94EA17F80181938F01EBCF529A5A9A86
:10307000089552985A9AEA9AE9E6F0E080818F7CA6
:10308000808308956150770B91E001C0990F6A9594
:10309000EAF720E031E0911108C0222391F05A9A1A
:1030A00080E28A95F1F75A980895492F482339F01C
:1030B0005A9A232740E24A95F1F79695ECCF5A9811
:1030C000F9CF5A98EDCFFF920F931F93CF93DF93D1
:1030D000EC018C01060F111DC017D10729F4CDB7E3
:1030E000DEB7E5E00C941222F9900E94E41768E044
:1030F0008F2D0E944218F0CF1F920F920FB60F92A1
:1031000011240F931F932F933F934F935F936F93CC
:103110007F938F939F93AF93BF93EF93FF93CF933F
:10312000DF930F92CDB7DEB719820E94DC17CE0174
:1031300001960E94EA17082F069506950695282FF6
:1031400022952570902F9570290F922F93702695B8
:103150002695920F982797708981982B09F05CC06B
:10316000043008F059C080E18A95F1F75A9A529AD2
:1031700082E08A95F1F700C05A9888E0089F8001A4
:103180001124D801AD5FBE4F1696ED91FC911797B3
:103190003097A9F060913A0170913B0114962D91FE
:1031A0003C911597260F371F11968D919C91129780
:1031B000680F791F13964C9113978C910995F8011C
:1031C000ED5FFE4F6381662351F020913A0130910B
:1031D0003B0184819581820F931F0E9463180E9496
:1031E000E41780E18A95F1F75A9852985A9A80E14B
:1031F0008A95F1F7F801ED5FFE4F6081662351F08B
:1032000020913A0130913B0181819281820F931F7D
:103210000E9416180E94DC170F90DF91CF91FF914A
:10322000EF91BF91AF919F918F917F916F915F913E
:103230004F913F912F911F910F910F900FBE0F90C3
:103240001F9018950F931F93CF93DF93EC01049772
:103250000CF04CC0F894529A5A9885E08A95F1F790
:1032600000009C2F969595708C2F8570980F892F54
:1032700083709695969523E0CC0FDD1F2A95E1F794
:10328000980F8E01092B0E94E41700C068E0802F80
:103290000E94421880E18A95F1F752985A9A4A9B07
:1032A0001EC087E090E04A991CC0FE01ED5FFE4F12
:1032B00063816623F9F020913A0130913B018481CA
:1032C0009581820F931F0E941618811113C0529A84
:1032D0005A9A7894DF91CF911F910F91089500C071
:1032E000DECF019729F4529A5A9A789480E0F2CF6F
:1032F00000C0D9CF0E94DC1780E28A95F1F75A9876
:10330000529A80E18A95F1F7CD5FDE4F688166239E
:1033100051F020913A0130913B0189819A81820FCD
:10332000931F0E9463180E94E417789481E0D2CF23
:1033300090934501809344010895909325028093D2
:10334000240208950E946310811103C080911F021E
:103350000895E0912402F0912502309729F0019020
:10336000F081E02D0995089580E00895E091240210
:10337000F0912502309721F00280F381E02D09952C
:10338000089520912202309123022817390771F005
:103390009093230280932202E0912402F09125026F
:1033A000309721F00680F781E02D0995089520914E
:1033B0002002309121022817390771F090932102E1
:1033C00080932002E0912402F0912502309721F0B1
:1033D0000084F185E02D099508959C012E5F3F4FF3
:1033E000AC01485F5F4F80E02417350709F408956A
:1033F000F90191919F019923B9F38F5FF5CF66236E
:1034000049F0FC01329608962191261729F0E81719
:10341000F907D1F780E0089581E008959C01FC014F
:1034200032969FEF80E04191461751F09F3F19F48B
:10343000411101C0982F8F5F8630A9F79F3F09F493
:103440000895290F311D97FD3A95F901628308957A
:10345000FC01329608962191261303C0DF011197D3
:103460001C92E817F907B9F708950E940E1A0895FB
:103470000E94281A0895029626E0FC0111922A95CE
:10348000E9F7089508950E94421A0895811106C02F
:1034900081E0809326020E94431A089582E0F9CFCA
:1034A00083E0809326020E94431A08950E94461AE0
:1034B000089581E0809326020E94431A08950E9495
:1034C000591A0895089508950E94631A0895089559
:1034D00008950E94621A0895CF930E94671A0E946D
:1034E000E70F0E94681AC0E08C2F0E94C00E811165
:1034F00005C0CF5FCA30C1F7CF91089581E0FCCFFE
:1035000085B7806885BF85B7806885BF08951F929D
:103510001FB61F9211248F939F93AF93BF938091F7
:103520002702811113C08091560490915704A091F5
:103530005804B09159044196A11DB11D80935604C1
:1035400090935704A0935804B0935904BF91AF913E
:103550009F918F911F901FBE1F90189580915E04C0
:10356000843031F10E9486021092270288E190E0B7
:1035700020E40FB6F894A895809360000FBE2093C6
:10358000600083B7817F846083BF83B7816083BF1E
:103590007894889583B78E7F83BF0FB6F894A895EB
:1035A00080916000886180936000109260000FBE7F
:1035B00008950E94A2050E948D02089582E084BDB4
:1035C00093E095BD9AEF97BD80936E0008952FB755
:1035D000F8948091560490915704A0915804B091AA
:1035E00059042FBF08952FB7F89460915604709135
:1035F000570480915804909159042FBF08959C015D
:103600004FB7F8948091560490915704A0915804B4
:10361000B09159044FBF821B930B0895CF92DF9254
:10362000EF92FF922FB7F894C0905604D0905704B1
:10363000E0905804F09059042FBFA7019601261B73
:10364000370B480B590BCA01B901FF90EF90DF907F
:10365000CF90089578941F921FB61F9211248F93D4
:103660009F93AF93BF938091560490915704A0917C
:103670005804B09159040196A11DB11D80935604C0
:1036800090935704A0935804B0935904BF91AF91FD
:103690009F918F911F901FBE1F90189587E797E706
:1036A000909301088093000888E19AE00FB6F8949F
:1036B000A895809360000FBE90936000FFCF88E1D3
:1036C0009AE00FB6F894A895809360000FBE90938F
:1036D0006000FFCF80913002089508950895CF9340
:1036E000DF93EC0181E08093E9008FEF9091E80097
:1036F000815095FD06C095ED9A95F1F70000811176
:10370000F5CF8091E80085FF14C050E040E068E00C
:1037100070E0CE010E94361D8091E8008E77809384
:10372000E80088E0FE01A8E2B2E001900D928A95DF
:10373000E1F7DF91CF9108950895089580915D0498
:10374000811109C00E94C61E0E94231F8091E200C1
:1037500084608093E200089510925D0408950E94B1
:10376000591A089560915A0481E0611101C080E006
:103770000E94501A089590915E0481E0943009F0FF
:1037800080E060915A040E94561A089542E061EC6C
:1037900081E00E94421E90915E0481E0943009F025
:1037A00080E060915A040E94461A08958091600456
:1037B000833009F461C030F48130D1F1823009F4F2
:1037C0009EC008958A3009F48AC08B3009F46FC016
:1037D000893009F050C080915F04813209F04BC0FC
:1037E0008091630490916404892B09F044C0809116
:1037F000E800877F8093E8008091E80082FF37C06F
:103800009091F3008091F200029731F48091F100E1
:10381000813011F0863021F48091F10080933002E4
:103820008091E8008B778093E8000E94761E23C089
:1038300080915F04813AF9F48091E800877F80935A
:10384000E8008091630490916404892B61F468E03E
:1038500088E292E070E00E94851D8091E8008B77FD
:103860008093E800089560E090E080E0F3CF8091DD
:103870005E048111C1CF089580915F04813AD9F728
:103880008091630490916404892BA9F78091E800EA
:10389000877F8093E8008091E80080FFFCCF8091D3
:1038A0002E018093F1008091E8008E77BCCF80914B
:1038B0005F04813201F78091630490916404892B45
:1038C000D1F68091E800877F8093E8000E94761E01
:1038D0008091610480932E010E94A2050895809139
:1038E0005F04813241F68091E800877F8093E80091
:1038F0000E94761E80916204809331020895809127
:103900005F04813A09F0B7CF8091E800877F809308
:10391000E8008091E80080FFFCCF80913102C1CFA8
:1039200084B7877F84BF0FB6F894A8958091600014
:10393000886180936000109260000FBE80E890E084
:103940000FB6F89480936100909361000FBE0E94BF
:103950005F1A08950E94C61E0E94231FE2EEF0E047
:1039600080818460808378940E94A221089582E2FD
:1039700091E00E949D19089580915E04853031F494
:1039800080915E04853019F00E94D91A08950E9432
:10399000AE1A80915C04882399F30E946C1A8823E4
:1039A00079F30E94201D0E94A205EACF08950E948B
:1039B000DA1C0895292F332723303105C9F058F434
:1039C0002130310599F122303105A9F190E080E0F4
:1039D00030E020E01DC02132310509F122323105ED
:1039E000A9F780E490E02AE033E0672B79F710C074
:1039F00099278130910581F0009729F0029731F7DE
:103A0000E0EBF2E002C0E2EDF2E0849190E09F0191
:103A1000FA01318320830895E0ECF2E0F6CF89E0EB
:103A200090E028EE32E0672B89F6F2CF82E190E059
:103A300028EF32E0EDCF82E290E026ED32E0E8CFF1
:103A400080E189BD82E189BD09B400FEFDCF80918E
:103A5000D8008F7D8093D8008091E00082608093B1
:103A6000E0008091E00081FDFCCF0895AF92BF920D
:103A7000CF92DF92FF920F931F93CF93DF936C014E
:103A8000EB018A010E94951EF82E811123C00115B9
:103A9000110539F0F80180819181C81BD90BC80E3E
:103AA000D91EB12CA12C2097A9F08091E80085FDAA
:103AB00022C08091E8008E778093E80001151105FF
:103AC000A1F0F80180819181A80EB91EB182A08277
:103AD00085E0F82E8F2DDF91CF911F910F91FF90F0
:103AE000DF90CF90BF90AF9008950E94951E8823DD
:103AF000D1F2F82EEFCFF60181916F018093F100A2
:103B00002197FFEFAF1ABF0ACECFFC018091650469
:103B10009091660486179707A0F06115710529F446
:103B20009091E8009E779093E80090E06115710510
:103B300051F4911108C08091E80082FF34C080E008
:103B40000895BC01F2CF80915E048823C1F18530D5
:103B5000C1F18091E80083FD30C08091E80082FDD2
:103B6000EACF8091E80080FFE1CF8091F3002091BF
:103B7000F200382F6115710519F02830310558F021
:103B800091E02830310509F090E02091E8002E778F
:103B90002093E800CBCF81918093F10061507109AF
:103BA0002F5F3F4FE7CF80915E04882341F085303F
:103BB00041F08091E80083FFBECF81E0089582E06C
:103BC000089583E00895FC01809165049091660456
:103BD00086179707A0F06115710529F48091E80018
:103BE0008E778093E80090E06115710551F4911192
:103BF00008C08091E80082FF35C080E00895BC01D4
:103C0000F2CF80915E048823C9F18530C9F180919B
:103C1000E80083FD31C08091E80082FDEACF809109
:103C2000E80080FFE1CF8091F3002091F200382F6F
:103C30006115710519F02830310558F091E02830F0
:103C4000310509F090E08091E8008E778093E800DC
:103C5000CBCF84918093F1003196615071092F5F31
:103C60003F4FE6CF80915E04882341F0853041F0DC
:103C70008091E80083FFBDCF81E0089582E0089540
:103C800083E00895982F973028F08F708093E90093
:103C900081E008959093E900242F762F50E0981743
:103CA00031F07091EC002091ED005091F00021FD79
:103CB00002C09F5FE8CF3091EB003E7F3093EB0076
:103CC0003091ED003D7F3093ED003091EB0031609D
:103CD0003093EB007093EC002093ED005093F000D4
:103CE0002091EE0027FDE5CF80E0089580915F04EC
:103CF00087FF13C08091E80082FF06C08091E80032
:103D00008B778093E80004C080915E048111F2CF2C
:103D1000089580915E048823D9F38091E80080FFA4
:103D2000F8CF8091E8008E77ECCF2091E4003091BD
:103D3000E50095E6A9012091EC00822F817020FF1B
:103D400006C08091E80080FF06C080E008952091C1
:103D5000E80022FD1AC080915E04882389F0853036
:103D600089F08091EB0085FD0FC02091E400309137
:103D7000E50042175307F9F29150E1F684E0089507
:103D800082E0089583E0089581E008950E94351F40
:103D90000E943D1FE0EEF0E0808181608083E8EDCD
:103DA000F0E080818F77808319BCA7EDB0E08C9123
:103DB0008E7F8C9380818F7E808310925D04089526
:103DC0000F931F93CF93DF930E94351F0E943D1FD7
:103DD000C8EDD0E088818F77888388818068888368
:103DE00088818F7D888319BC10925E0410925A04DA
:103DF00010925C0410925B0400EE10E0F8018081E8
:103E00008B7F808388818160888342E060E080E0EE
:103E10000E94421EE1EEF0E080818E7F8083E2EE20
:103E2000F0E0808181608083808188608083F801F8
:103E300080818E7F8083888180618883DF91CF91AC
:103E40001F910F910895E8EDF0E080818F7E8083CF
:103E5000E7EDF0E080818160808384E082BF81E0D3
:103E600080935D040E94E01E0895E8EDF0E08081FB
:103E70008E7F80831092E20008951092DA001092F3
:103E8000E10008951F920F920FB60F9211242F9305
:103E90003F934F935F936F937F938F939F93AF93D2
:103EA000BF93EF93FF938091E10082FF0BC080915D
:103EB000E20082FF07C08091E1008B7F8093E100E8
:103EC0000E94A1218091DA0080FF19C08091D80062
:103ED00080FF15C08091DA008E7F8093DA00809198
:103EE000D90080FF96C080E189BD82E189BD09B417
:103EF00000FEFDCF81E080935E040E949E1B8091B6
:103F0000E10080FF19C08091E20080FF15C0809120
:103F1000E2008E7F8093E2008091E20080618093D6
:103F2000E2008091D80080628093D80019BC85E0BF
:103F300080935E040E94B21B8091E10084FF2BC03D
:103F40008091E20084FF27C080E189BD82E189BDC4
:103F500089B5982F917080FFFBCF8091D8008F7D1D
:103F60008093D8008091E1008F7E8093E100809162
:103F7000E2008F7E8093E2008091E2008160809376
:103F8000E20080915A04882309F449C084E08093B8
:103F90005E040E94BB1B8091E10083FF29C08091D9
:103FA000E20083FF25C08091E100877F8093E100DC
:103FB00082E080935E0410925A048091E1008E7F2B
:103FC0008093E1008091E2008E7F8093E2008091F7
:103FD000E20080618093E20042E060E080E00E94C5
:103FE000421E8091F00088608093F0000E94AF1B19
:103FF000FF91EF91BF91AF919F918F917F916F91C1
:104000005F914F913F912F910F900FBE0F901F9096
:10401000189519BC10925E040E94AC1B70CF809161
:10402000E30087FD93E090935E04B3CF1F920F925D
:104030000FB60F9211242F933F934F935F936F937B
:104040007F938F939F93AF93BF93CF93DF93EF9320
:10405000FF93D091E900DF708091EC00C82FC17010
:1040600080FDC0E81092E9008091F000877F809386
:10407000F00078940E945A201092E9008091F0009C
:1040800088608093F000CD2BCF70C093E900FF9142
:10409000EF91DF91CF91BF91AF919F918F917F91E0
:1040A0006F915F914F913F912F910F900FBE0F90A5
:1040B0001F901895AAE2B0E0E0E6F0E20C94F82137
:1040C0008FE594E02091F100FC012193CF01F4E011
:1040D00087369F07B9F70E94D61B8091E80083FFBF
:1040E0001EC180915F04909160049A3008F017C15E
:1040F000E92FF0E0EA57FD4D0C94E321803899F068
:10410000823809F00CC1809163048F70873008F009
:1041100006C18093E9008091EB0085FB882780F938
:104120001092E90006C080915B0490915C049111AB
:1041300082609091E800977F9093E8008093F1006F
:104140001092F1008091E8008E77E5C0882309F491
:10415000D3C0823009F0E3C0809161048111D6C0E0
:10416000809163048F702FEF280F263008F0D7C09E
:104170008093E9002091EB0020FFC8C0933031F418
:104180008091EB0080628093EB00C0C09091EB00C7
:1041900090619093EB0021E030E001C0220F8A95FE
:1041A000EAF72093EA001092EA008091EB00886021
:1041B000EACF8111B4C0109161041F778091E300B0
:1041C0008078812B8093E3008091E800877F809343
:1041D000E8000E94761E8091E80080FFFCCF80916D
:1041E000E30080688093E30082E0111183E0809314
:1041F0005E0495C08058823008F091C080916104BF
:10420000909162048C3D23E09207A1F583E08A83BC
:104210008AE289834FB7F894DE01139620E03EE0EE
:1042200051E2E32FF0E050935700E49120FF03C0E8
:10423000E295EF703F5FEF708E2F90E0EA30C0F0B4
:10424000C7968D939D932F5F243159F74FBF80916F
:10425000E800877F8093E8006AE270E0CE01019673
:104260000E94851D8091E8008B778093E80057C0FD
:10427000C096E7CF6091630470916404AE014F5F14
:104280005F4F0E94D71CBC01892B09F448C0909154
:10429000E800977F9093E80089819A810E94E31D4E
:1042A000E1CF8038E1F58091E800877F8093E800D6
:1042B00080915A048093F10045CF811130C09091D4
:1042C0006104923060F58091E800877F8093E80078
:1042D00090935A040E94761E80915A04882311F00C
:1042E00084E005C08091E30087FDFACF81E08093F0
:1042F0005E040E94C61B13C080916104813079F472
:1043000081E0933009F080E080935C041092E90032
:104310008091E800877F8093E8000E94761E80915C
:10432000E80083FF0AC08091E800877F8093E8005F
:104330008091EB0080628093EB00AA96E3E00C94FE
:1043400014220895CF9380915E048823A1F0C09138
:10435000E900CF709091EC00892F817090FD80E88A
:10436000C82B1092E9008091E80083FD0E945A203A
:10437000CF70C093E900CF9108950E94C61E10929D
:104380005E040895E8EDF0E08081806180838AE139
:104390008A95F1F700C08091D90081700895AA1B19
:1043A000BB1B51E107C0AA1FBB1FA617B70710F020
:1043B000A61BB70B881F991F5A95A9F78095909552
:1043C000BC01CD010895EE0FFF1F0590F491E02D83
:1043D00009942F923F924F925F926F927F928F92A9
:1043E0009F92AF92BF92CF92DF92EF92FF920F9384
:1043F0001F93CF93DF93CDB7DEB7CA1BDB0B0FB68E
:10440000F894DEBF0FBECDBF09942A88398848884A
:104410005F846E847D848C849B84AA84B984C884E0
:10442000DF80EE80FD800C811B81AA81B981CE0FD7
:10443000D11D0FB6F894DEBF0FBECDBFED010895BC
:10444000FB01DC0104C08D910190801921F44150E1
:104450005040C8F7881B990B0895FB01DC0102C08E
:1044600001900D9241505040D8F70895F999FECF30
:1044700092BD81BDF89A992780B50895A8E1B0E072
:1044800042E050E00C946A22262FF999FECF92BDAB
:1044900081BDF89A019700B4021639F01FBA20BD09
:1044A0000FB6F894FA9AF99A0FBE08950396272F3B
:1044B0000E9445220E944422252F0E944522242F3B
:1044C0000C9445220196272F0E9445220C944422E9
:1044D000DC01CB01FC01F999FECF06C0F2BDE1BDC4
:1044E000F89A319600B40D9241505040B8F70895B3
:1044F000F894FFCFC003C003F103F10320042004AC
:10450000200420047E04EF04FE04FE047E20A62086
:104510008F21A6208F21D920FA208F2151215D21C2
:10452000B2010100000001000000000000000501D0
:1045300000000004060000000000000021007F22AF
:1045400000036A1B6F1B9C1B6D1B9D1B6E1B01F6E2
:10455000F7313332366697C63435D9010008101862
:044560001810080027
:00000001FF
