:100000000C94CB010C94E8010C94E8010C94541965
:100010000C94E8010C94E8010C94E8010C94E801BC
:100020000C94E8010C94E8010C9474200C94472182
:100030000C945E1B0C94E8010C94E8010C94E8010C
:100040000C94E8010C94E8010C94E8010C94E8018C
:100050000C94E8010C94161C0C94E8010C94E80133
:100060000C94E8010C94E8010C94E8010C94E8016C
:100070000C94E8010C94E8010C94E8010C94E8015C
:100080000C94E8010C94E8010C94E8010C94E8014C
:100090000C94E8010C94E8010C94E8010C94E8013C
:1000A0000C94E8010C94E8010C94E80135001E0062
:1000B0001F002000210022002B0014001A0009005C
:1000C00013000A002A00040015001600170007009C
:1000D000E1001D001B000600190005000000E30000
:1000E000E00029422C00E2002D0027002600250018
:1000F00024002300310033001C0018000F000D0005
:10010000340012000C00080011000B00E50038005C
:100110003700360010000E000000E700E4002E4318
:100120002800E600010001000100010001000100BB
:100130000100010001000800150017000100010086
:100140001600070009000A0001000100010001007B
:100150000100010000000100010001000100010098
:100160000100010001000100010001000100130075
:1001700012000C0018001C00010033000F000E00DC
:100180000D0001000100010001000100010011004B
:100190000000010001000100010001000100010058
:1001A00001000100010001000100015301000100F4
:1001B0002602270201000100010001002F0030008B
:1001C00001000100010001002F02300200000100C7
:1001D00001000000A800AA0001000100560055001F
:1001E00054005300010001005700610060005F00EF
:1001F0000100010067005E005D005C00010001007D
:1002000058005B005A0059000000010063006200C2
:100210000100A900B5003A003B003C003D003E0053
:10022000010001000100010001000100390001008E
:1002300001000100010001000100010001000100B6
:10024000010001000000010001002900010001007F
:10025000440043004200410040003F004500490087
:10026000480047004600010001004C004F005200CA
:1002700051005000010001004D004B004E004A00AB
:1002800000000100010000000100010000AE00AF0D
:1002900000DA0281FFD9F1DB20A4A62EAF00A0C0B6
:1002A00000A1C800AED580A81FD300408D14200047
:1002B0000E034C0069006C00790035003800000026
:1002C00010036C0069006C00690075006D0073001C
:1002D00000000403090409023B00020100A0FA091E
:1002E0000400000103010100092111010001224065
:1002F0000007058103080001090401000103000053
:1003000000092111010001223200070582032000AB
:10031000011201000200000008D8042DEB000101C9
:1003200002000105010980A101850319012AB70016
:10033000150126B700950175108100C0050C090153
:10034000A101850419012AA002150126A002950128
:1003500075108100C005010906A101050719E029F2
:10036000E715002501950875018102950175088141
:10037000010507190029FF150026FF0095067508DD
:10038000810005081901290595057501910295015E
:1003900075039101C00011241FBECFEFDAE0DEBF6C
:1003A000CDBF11E0A0E0B1E0E8EAF7E402C00590BB
:1003B0000D92A03AB107D9F724E0A0EAB1E001C05C
:1003C0001D92A63CB207E1F70E945E130C94AD2388
:1003D0000C94000081E0089581E008950E94EC01F2
:1003E000089508950E94F1010895A5E0B0E0EBEFB3
:1003F000F1E00C942D2349835A833091A701898120
:100400009A81311119C0662399F0222389F00E9444
:100410008807182F682F89819A810E946407698153
:100420007A81812F0E94000E2596E3E00C944923E7
:100430000E947607182FF3CF0E94880769817A817E
:10044000F1CFFC01262F408151816281738184812B
:100450000E94F501089581E00895CF93DF93D82F8E
:10046000C92F60E00E9421026D2F7C2F0E94F201B3
:10047000DF91CF9108950E94910F08950E94950FEA
:10048000089508950E942C060E9441022FEF84E3F4
:100490009CE0215080409040E1F700C000000895AA
:1004A0000E9442020E943A1C08950E9442020E9449
:1004B0004B1C08950F931F93CF93DF938C0161E042
:1004C0000E942102EC01B8010E94EE018823A9F1EB
:1004D000B801CE010E946217882379F1B801CE01DC
:1004E0000E94B715882349F1B801CE010E94C916B0
:1004F000882319F1F8018281882381F0CC35FDE54C
:10050000DF0751F178F4CF3DECE5DE07E1F0CB35C4
:10051000FDE5DF07F1F0C115DC4569F0C8010E9477
:10052000EA010CC0CD35DC0789F0C83ADD45B1F7EA
:100530000E94550202C00E94500280E0DF91CF91DC
:100540001F910F9108950E94450CF2CF0E948A0BD3
:10055000E5CF0E94940BE2CF0E94980BDFCF0E9460
:100560003B1B0E94CE020E94501508950E94D202A9
:100570000E94401B089508950E94BB02089581E0E7
:1005800008950E94BF0208950895CF93C82F0E9436
:10059000BC028C2F0E94C102CF91089580E00E947E
:1005A000C50208950E94791A0E94C5020895CF934A
:1005B0000E94791AC82F8091A2018C1779F0C093FC
:1005C000A2010E94CA1B6093A3017093A4018093AF
:1005D000A5019093A6018C2F0E94C502CF9108958A
:1005E000ABE0B0E0E6EFF2E00C942A23142F4F8347
:1005F000052F588769877A878B87EA84FB84611186
:100600000E94D30A1E8285E0FE013796DE01119614
:1006100001900D928A95E1F7E114F10461F44981AA
:100620005A816B817C818D819E810E94F9092B9674
:10063000E6E00C94462310231F3F89F3CE01019678
:100640000E942B028111EBCFF2CFFC0180819181BE
:100650000E94BA070895CF93C82F8823B9F08CEF72
:100660008C0F813AA8F46C2F8091000190910101C8
:100670000E94D51A882329F08C2F0E94900A0E948C
:10068000F40A8C2F0E94880A0E94F40ACF910895E0
:1006900080E28C0F883048F4C77081E001C0880F79
:1006A000CA95EAF70E94B40AEFCF8BE58C0F83302E
:1006B00038F42C2F2452330BC9010E94981AE6CF2C
:1006C000C85AC73118F7EC2FF0E0EE0FFF1FE15DBD
:1006D000FE4F808191810E94AE1AD8CF882339F1D4
:1006E0009CEF980F913A28F40E94900A0E94F40A15
:1006F000089590E2980F983050F4877091E001C00F
:10070000990F8A95EAF7892F0E94BA0AEFCF9BE5E5
:10071000980F933028F480E090E00E94981A089592
:10072000885A873120F480E090E00E94AE1A089544
:100730001F93CF93DF93182FEB010E942B03209779
:1007400039F4812F0E946E03DF91CF911F9108959C
:100750008FE99FE00197F1F700C000002197EFCFEC
:1007600060E070E0893311F460E570E00E94980366
:100770000895882321F00E94B40A0E94F40A089583
:10078000882321F00E94BA0A0E94F40A0895A0E08A
:10079000B0E0EDECF3E00C9428236C01D62FC72FCA
:1007A000FC010281F580F2948FE0F8220E94A90AF0
:1007B000E82E8823B9F0E02E0023A1F08C2F807F53
:1007C000803421F080E28D0F883090F18091960284
:1007D00082FF2EC082E00E94570B0E94A90A91E07E
:1007E000E82EE9268C2F82958F70883009F4F0C0AE
:1007F000E0F58430F8F41C2F1F70823008F446C0F6
:10080000C07FC03211F01295107FDD2309F46DC056
:10081000D13009F4A2C0002309F4ACC0FF2009F4D0
:10082000A2C0F601858180FF44C08F7085839BC084
:10083000E12CD8CF843009F4AEC0EE2089F00E94BC
:10084000A50A80FD0DC0F60112820E949F0A0E9437
:10085000C106C6010E94F1050E949F0A0E94D106AE
:10086000CDB7DEB7E8E00C944423893009F42AC1FF
:100870008A5F8F70823008F7D23F09F034C18C2F25
:100880008F7101112DC10E94C106D1C0C03110F07D
:100890001295107F002399F0112359F080E28D0FFB
:1008A000883010F0D11107C0812F0E94B40A0E9435
:1008B000F40A8D2F28C0812F0E94C50AF8CF8D2FF2
:1008C0000E946E03112309F4B8CF80E28D0F8830A7
:1008D00010F0D11104C0812F0E94BA0A03C0812FE9
:1008E0000E94CB0A0E94F40AA8CF8091960282FD52
:1008F00014C0002359F0112329F0812F0E94B40A5B
:100900000E94F40A80E00E942B0397CF80E00E94AF
:100910006E03112309F491CFDECF002389F0F1108B
:1009200006C00E94D60A812B0E94B90386CFF1E04F
:10093000FF12F7CF0E94D60A812B0E94DD0A7DCFDD
:10094000F11006C00E94EA0A812F0E94C00375CFF1
:1009500021E0F21609F471CFF5CF002331F065E004
:100960006F1508F46ACF812FDFCF74E07F1508F48C
:1009700064CFEACFFF2041F3D93349F4FFEF27EEEC
:1009800063E0F15020406040E1F700C000008D2F8F
:100990000E946E0352CF8C2F869586958370882394
:1009A00069F0813009F049CF8D2F9C2F9370011190
:1009B00002C080E090E00E94AE1A3FCF8D2F9C2FA6
:1009C0009370011102C080E090E00E94981A35CF28
:1009D0008C2F8370811139C0011129C04D2F429590
:1009E00046954770440F440F2D2F2F7030E0042E92
:1009F00002C0220F331F0A94E2F780E090E0D4FF98
:100A000009C08FE090E002C0880F991F4A95E2F775
:100A100080959095C695C695C370822B932BC23056
:100A200071F0C33079F0C13039F00E948F060E9416
:100A3000791A0E94C50201CF0E948606F8CF0E9453
:100A40009806F5CF0E948306F2CF002361F1C0FF24
:100A5000EECF8D2F829586958770880F880F4D2F4A
:100A60004F7050E0082E02C0440F551F0A94E2F761
:100A7000D4FF1CC02FE030E0F90102C0EE0FFF1FD1
:100A80008A95E2F7CF0180959095C695C695C3707B
:100A9000842B952BC23081F0C33089F0C13049F0EE
:100AA0000E94FC06C4CF823010F2D3CF80E090E0E9
:100AB000ECCF0E94F306BBCF0E940507B8CF0E947F
:100AC000A706B5CFCF70002339F08C2F0E94C10646
:100AD0008D2F0E94B903ABCF8D2F0E94C0038C2FA6
:100AE0000E94D106A4CFD33F70F4D03FB9F0D13FDC
:100AF00089F1002309F44CC0FF2009F446C08D2F72
:100B00000E942B0394CFD33FB9F0D43FF9F00111E9
:100B1000F3CFF1104AC08C2F8F71E2CF002349F040
:100B2000F4E0FF1508F483CF8C2F8F710E94E30649
:100B30007ECF25E0F216F6CF002329F08C2F8F719F
:100B40000E94B50674CF0E94B00671CF80919602C4
:100B500082FD05C08C2F8F71002311F294CE0023EB
:100B600049F0CF718C2F0E94C10663E08C2F0E9448
:100B7000390B5DCF81E00E94570B61E06F1508F0E3
:100B800056CF82E00E94570B52CF8C2F8F717BCEB5
:100B9000FF2009F2D93349F47FEF87EE93E07150DB
:100BA00080409040E1F700C000008D2F0E946E034E
:100BB0003ECF0F931F93CF93DF93EC016881798130
:100BC0008A810E94C7078C010E940E070E9482063C
:100BD000B801CE010E94C703DF91CF911F910F9101
:100BE0000895CF93DF93EC01988189812B813C811B
:100BF000232BB1F089238F3F99F0CE010E945A0236
:100C0000811111C00E94A90A882351F08A8188238A
:100C100039F08091960282FF03C082E00E94570B58
:100C2000DF91CF910895CE010E94D905CE010E9497
:100C30002D02F6CF80E090E00E94981A80E090E0CC
:100C40000E94AE1A0E94D30A0E94F40A08950E94DC
:100C5000980A0E941A0608950E94C20A0E94270656
:100C60000895282F92959F70963091F060F4925FCE
:100C70009F70923030F481E0203F79F030F4283ECC
:100C800030F080E008959A5FF3CF243FD1F70895C4
:100C900081E0283EE0F3213FF9CF0895FC018381F4
:100CA0009481892B61F08181908189238F3F39F074
:100CB000808191810E94BA070E943106089580E0E8
:100CC0000895A5E0B0E0E7E6F6E00C942E23259623
:100CD000E2E00C944A23A6E0B0E0E1E7F6E00C94F1
:100CE0002E232696E2E00C944A2308950E9475066E
:100CF00008950E9476069093CB018093CA010E94CA
:100D00001A06089508950E94790608952091CA014F
:100D10003091CB01822B932B0E947906089520916C
:100D2000CA013091CB01822393230E947906089552
:100D30002091CA013091CB01822793270E94790626
:100D400008950E94750608950E94A10608950E94C4
:100D5000A4069093C9018093C8010E941A060895C1
:100D600080E090E00E94A706089521E030E0A9010C
:100D700002C0440F551F8A95E2F7CA010E94A706D8
:100D8000089521E030E002C0220F331F8A95E2F778
:100D90008091C8019091C901822B932B0E94A706D4
:100DA000089521E030E002C0220F331F8A95E2F758
:100DB000209530958091C8019091C9018223932399
:100DC0000E94A706089521E030E002C0220F331FE1
:100DD0008A95E2F78091C8019091C90182279327F3
:100DE0000E94A70608952091C8013091C901822B65
:100DF000932B0E94A70608952091C8013091C90144
:100E0000822393230E94A70608952091C801309160
:100E1000C901822793270E94A706089508959B0180
:100E2000677091E001C0990F6A95EAF763E0369523
:100E300027956A95E1F7220F331F220F331FFA011E
:100E4000E20FF31F40E050E0682F70E08191DF0176
:100E500011979B01042E02C0369527950A94E2F75C
:100E6000217021952827292328272C934F5F5F4F36
:100E70004430510559F708959C01982F977083E0ED
:100E8000369527958A95E1F7220F331F220F331FDE
:100E9000FB01E20FF31F40E050E080E0219130E0E1
:100EA000092E02C0369527950A94E2F72170332760
:100EB000042E01C0220F0A94EAF7822B4F5F5F4F86
:100EC0004430510559F70895282F862F9A3068F439
:100ED000263058F4622F70E026E0929F600D711D5D
:100EE000112448EA51E00E940F070895292F9A30F3
:100EF00068F4863058F490E068EA71E036E0239FA9
:100F0000800D911D11240E943C07089580E00895F2
:100F1000A0E0B0E0EEE8F7E00C9427238C01E0902D
:100F2000C801F090C9018091CA019091CB01E82AD3
:100F3000F92ACFE0D0E0CC24C394D12CC6010C2EEA
:100F400002C0880F991F0A94E2F78E219F21892BF6
:100F500049F4219798F7B12C8B2DCDB7DEB7E9E096
:100F60000C944323BC2EB8018C2F0E941A0E0197BB
:100F700081F3F2CFCF93DF93D82FC92F0E94880738
:100F80006D2F7C2F0E941A0EDF91CF9108951F9331
:100F9000CF93DF93162FD72F9091A701992341F07C
:100FA000862F972F0E94BA07DF91CF911F91089546
:100FB000882381F0862F972F0E948807C82F682FDB
:100FC000812F9D2F0E946407612F7D2F8C2F0E94FF
:100FD0001A0EEACF862F972F0E947607C82FF4CFDC
:100FE0000F931F93CF93E091CC01C6E08091CD0188
:100FF0008E1304C0CF911F910F9108950E2F10E012
:10100000CE9FF0011124E253FE4F40815181628155
:101010007381848195810E946B06F8013196E77097
:10102000E5CF4091FE015091FF0160910002709167
:10103000010280910202909103020E946B060895C2
:101040001F93CF93DF9380910302803108F04CC04F
:1010500080910002882309F447C08091CC0120913F
:10106000CD016091FE013091FF01C0910102D0914C
:101070000202732F76232817B9F190E0209709F424
:1010800043C016E07F3F09F43FC0189FF001199F4D
:10109000F00D1124DF01A253BE4F11964C91119710
:1010A00034132CC04C91461329C012964C911297C0
:1010B00041111EC013964D915C914C1B5D0B483243
:1010C0005105E0F4809103028F70806180930302E8
:1010D000ED52FE4F80818F70806180838EEF91E0B2
:1010E0000E94F1050E94F007DF91CF911F910895B2
:1010F0000196877099272813C8CFF6CF019687707D
:1011000099272813BFCFF0CF01968770B4CF8F9265
:101110009F92AF92BF92DF92EF92FF920F931F9335
:10112000CF93DF93CDB7DEB72B970FB6F894DEBF22
:101130000FBECDBF8C0185E0F801DE01179601904E
:101140000D928A95E1F7D8011296FC9012971396AA
:10115000AD90BC9014978EEF882E81E0982E9091E0
:10116000FE012091FF0140910102509102024115C0
:10117000510509F42AC1822F89238F3F09F425C123
:10118000D0900002F501E41BF50BDD2009F4F4C05A
:1011900080910302B89708F0CCC011963C9111974A
:1011A000803108F087C0EF2C321315C02C91291321
:1011B00012C0F1101FC08F708061809303020E94E3
:1011C0001108C4010E94F10580910302D80115960F
:1011D0008C93E12C5CC09F818885AB28F1F0282F8F
:1011E00029232F3FD1F0E091CC012091CD0136E0B1
:1011F000FF2049F1809103028160809303028EEF0A
:1012000091E00E94F10586E0EEEFF1E0DF011D9232
:101210008A95E9F70E941108DCCFFF20D1F2EACFCE
:101220004E2F50E03E9FF0011124E253FE4F6181AA
:10123000861306C06081691303C062816111C9CF42
:10124000FA013196E770E213EBCF8F8198850E9407
:10125000BA07292F22952F70903248F49F70992356
:1012600011F08823A1F0805E883088F004C0225FEE
:101270002F70223028F0C8010E94F105ED2C07C024
:101280009F70992381F3F8019581903160F78E2D3D
:101290002B960FB6F894DEBF0FBECDBFDF91CF9176
:1012A0001F910F91FF90EF90DF90BF90AF909F90B4
:1012B0008F900895321317C0F8012081291313C0AD
:1012C000F11011C08583C8010E94F10586E0F80184
:1012D000AEEFB1E001900D928A95E1F70E941108FE
:1012E000EE24E394D4CFC8010E944E06882309F46B
:1012F00060C0FF2009F45DC080910302803270F06D
:101300002091FE013091FF013A8329831B82BD8227
:10131000AC828E83CE0101960E94F10586E0F80131
:10132000AEEFB1E001900D928A95E1F70E9420089E
:10133000D5CF803170F44F81588569857A858B854A
:101340000E9461068EEF91E00E94F10586E0D401D3
:101350005ECFF80131812313C6CF20812913C3CF7B
:10136000F110C1CF8583C8010E94F10586E0D40148
:101370001D928A95E9F7B4CFB897F8F4FF20C9F029
:10138000F801818128130BC08081891308C086E091
:10139000AEEFB1E001900D928A95E1F7A1CFC801BF
:1013A0000E944E068111BACF809103028160809322
:1013B0000302C8010E94F10593CF4F8158856985CA
:1013C0007A858B850E946106C1CFFF2091F3C80109
:1013D0000E944E06882369F386E0F801AEEFB1E083
:1013E00001900D928A95E1F78EEF91E00E9425031E
:1013F0009DCFACE0B0E0EFEFF9E00C942D234F83EC
:10140000588769877A878B879C87CE0107960E94C9
:1014100087088823D9F08A859B85892B61F05885B8
:101420004F81852F84238F3F31F069857A858B85A5
:101430009C850E946B0616E08091CC019091CD01B5
:10144000891344C02C96E3E00C94492386E0FE0106
:101450003796DE01119601900D928A95E1F78F8102
:1014600098852091CD014091CC016A857B85672BC1
:1014700011F389238F3FF9F230E0C901019687709B
:10148000992750E08417950771F40E942C0610925A
:10149000CD011092CC0186E0EEEFF1E0DF011D926C
:1014A0008A95E9F7C8CF96E0929FD001939FB00D3F
:1014B0001124A253BE4FFE01319601900D929A95D0
:1014C000E1F78093CD010E94F007B5CF189FC001CE
:1014D000112482539E4F0E948708882309F4B2CFBB
:1014E000E091CC011E9FF0011124E253FE4F408198
:1014F000518162817381848195810E946B06809104
:10150000CC0190E00196877099278093CC0194CF0D
:10151000682F80910001909101010E940F1B089596
:10152000682F80910001909101010E94121B089583
:1015300080910001909101010E94151B08958091F6
:101540000C02859585958595089580910C0287708C
:10155000089590910C02977081E0911101C080E094
:10156000089580911702089590911702982B9093F7
:1015700017020895982F90958091170289238093E0
:101580001702089510921702089590911602982B51
:10159000909316020895982F9095809116028923B2
:1015A00080931602089510921602089580910D02FC
:1015B000089508950E94D90A08959091960292FF85
:1015C00008C090910D02981721F080930D020E949F
:1015D000DA0A089580910D02882329F010920D02F5
:1015E00080E00E94DA0A0895CF93DF93E091000132
:1015F000F0910101809117028083E0910001F09148
:101600000101808190911602892B808390910D02B7
:10161000992381F0E0910001F09101018081892BF3
:10162000808380910001909101010E94C41A811170
:101630000E94EA0AC0910001D091010148E050E007
:1016400064E072E0CE010E945523892B59F088E0B6
:10165000FE01A4E0B2E001900D928A95E1F7CE017F
:101660000E948D1ADF91CF91089508950E94350B45
:1016700008959091960292FF11C098E0899F900181
:101680001124622B60930C020E94C10680910C020F
:101690008595859585950E94360B08950E94C10613
:1016A000089510920C0280E00E94360B089520915C
:1016B0000C028095822380930C02982F97709111D1
:1016C00013C030E0482F082E000C550B24173507A7
:1016D00059F09091960292FF07C085958595859562
:1016E0000E94D1060E94510B08959091960292FBA0
:1016F000222720F9281769F080FB92F9909396022F
:1017000080919502909196020E94BF0B82E00E9408
:10171000570B08958091960282FB882780F991E00B
:1017200089270E94750B089581E00E94750B08952A
:1017300080E00E94750B089580E090E00E94732382
:101740009C0181E0283E3E4F09F080E0089582E050
:1017500090E00E946B23089583E090E00E946B2349
:101760000895CF9384E090E00E946B23C82F82E21B
:1017700090E00E946B23982F8C2FCF910895CF93E8
:10178000682FC92F84E090E00E9479236C2F82E2B9
:1017900090E00E947923CF910895AB01BC018FE0C6
:1017A00090E00E948B230895AB01BC0183E190E09F
:1017B0000E948B23089560E070E0CB010E94D40B5F
:1017C000089560E070E0CB010E94CD0B0E94DB0B1E
:1017D000089568EE7EEF80E090E00E94972360E03D
:1017E00082E090E00E94792360E083E090E00E9434
:1017F00079231092CB011092CA0160E084E090E05E
:101800000E94792364E082E290E00E94792360E004
:1018100085E090E00E94792360E086E090E00E94FD
:1018200079236FEF87E090E00E94792340E050E059
:10183000BA0188E090E00E948B2360E08DE090E0A8
:101840000E94792340E050E0BA0188E190E00E94D4
:101850008B2360E087E190E00E94792340E050E034
:10186000BA018CE190E00E948B2360E070E080E29E
:1018700090E00E94972340E050E0BA0188E190E0B8
:101880000E948B230E94E10B08950E94E90B0895AA
:10189000682F8EE090E00E94792308950E94CA1B71
:1018A000609328027093290280932A0290932B025E
:1018B000609324027093250280932602909327025E
:1018C0000895089508950E94620C089508950E9455
:1018D000660C08958FE69FE00E946F1A0E94610CCB
:1018E0000E94630C08950E94471108950895089579
:1018F0000E94760C0E94770C08950E94720F0E943D
:10190000C40208950E94B51B0E94060F0E94621136
:101910000E94A2100E947D0C0E946B1380E00E9426
:10192000C7130E946C110E94670C0895A5E0B0E0F7
:10193000ECE9FCE00C9426230E94C6108AE1C82E34
:1019400082E0D82E760110E0F70101917F01812F0E
:101950000E94980F1F5F1A3009F448C00817A1F3BE
:1019600080912C0281FD0E949E0F0E94730CA82E74
:1019700000E0802F0E94980F182FF60191916F01BF
:10198000891741F1B82EB926F12CEE24E3948B2D62
:101990008E218823B9F0AA20A9F0F9820A8391E068
:1019A000812F8E21811101C090E09B830E94BE1B7C
:1019B0008160782F9D838C8349815A816B81892F27
:1019C0000E94F002F394EE0CF6E0FF12E0CFF60175
:1019D000319710830F5F0A3061F60E944E0C0E940F
:1019E00047110E9470150E942F1410C00813B8CF21
:1019F0000E94BE1B8C018091180290911902081759
:101A0000190751F40E9447110E9470150E94D702D5
:101A10002596EAE00C9442238FEF89838A831B8208
:101A20000E94BE1B8160782F9D838C8349815A81DF
:101A30006B81892F0E94F002109319020093180203
:101A4000E1CFCF93DF930E941F0EEC01811522E5B9
:101A5000920708F04CC0811541E5940708F0A5C035
:101A60008F3B9105E0F0811550E5950760F1869573
:101A7000869560E2869FC0011124C370DD2721E0B6
:101A800030E0A90102C0440F551FCA95E2F7EA01F0
:101A9000C82BD92BDD68CE01DF91CF910895883A0C
:101AA000910508F074C0853A910518F0A497D064A8
:101AB000F2CF049780F781E0219709F080E0C82FEA
:101AC00080E0D82FE8CFC11590E4D90708F06AC0AC
:101AD000C83ED10530F4C03ED105E8F6C0E0D0E004
:101AE000DACFCE019A9581159F41A8F2F7CF8115E3
:101AF00046E5940738F5811555E5950708F069C066
:101B0000811564E5960728F0D82FCC27C46FD06ADA
:101B1000C2CF86958695AE014370552720E2C11548
:101B2000D34508F047C0829FC001112421E030E076
:101B300002C0220F331F4A95E2F7822B932BEC0150
:101B4000DC68A9CF81154AE5940780F4811559E531
:101B5000950708F048C098558F3F910511F008F09F
:101B6000BDCFDC2FCC27C06FD06A95CF90568115A2
:101B7000904208F0B3CF8D2F8F710E94C30E90E07A
:101B8000982F882788279F718C2BEC012AC0C85A70
:101B9000D0E0CC0FDD1FC35ADE4F0990D881C02D95
:101BA000D46479CFDF70D06A76CFD82FCC27C16FBD
:101BB000D06A71CF829FC001112421E030E002C0C1
:101BC000220F331F4A95E2F7822B932BEC01DA6840
:101BD00062CF0E94C30EC82FD0E0DC2FCC27CC27C9
:101BE000DF71D06258CF8F700E94C30E34E0D6955B
:101BF000C7953A95E1F7CF709C2FEC01D0694BCF98
:101C00007A30A8F4663098F4E62FF0E096E0799FF9
:101C1000E00DF11D11249CE3899FE00DF11D1124BD
:101C2000EE0FFF1FE455FF4F85919491089580E0DA
:101C300090E008950E94000E0E94210D0895803EBC
:101C40009105D1F1C8F48133910509F47FC048F4BE
:101C50008932910509F46FC08A32910509F47DC07B
:101C6000089589339105E1F082389105C9F08533F3
:101C7000910509F45BC00895843E9105D1F148F4C3
:101C8000823E910531F1833E910541F181EE90E074
:101C90000895863E9105C1F1873E9105E1F10895D1
:101CA000209195022370211165C02091960223FF97
:101CB00014C089E290E008952091950220FD43C070
:101CC0003091960230FF09C024FF4EC080E090E0C2
:101CD00008952091950222FDF7CF08952091950255
:101CE00022FD45C03091960230FD44C024FFF5CF5F
:101CF000EDCF2091960221FFF0CF8091950284FDD7
:101D0000E5CF87EE90E008952091950223FFE5CF7F
:101D100024FDDCCFF6CF2091950223FD2EC030911B
:101D2000960231FFE3CF84EE90E008952091950272
:101D300025FFD3CFBECF2091950225FD21C0209154
:101D4000960223FFCACF89E390E00895209195027F
:101D500026FFC3CF8AE290E008952091950226FFE6
:101D6000BCCF81E390E0089583EE90E0089582EE89
:101D700090E0089580EE90E0089586EE90E008955A
:101D800085E390E0AACF9091950292FF06C0282F9C
:101D900028712830F9F4877F846093FF06C0282FCC
:101DA00028712831F1F4877E84612091960220FF0A
:101DB00006C0382F38713830D9F4877F816021FF11
:101DC00006C0282F28712831D1F4877E816194FDC7
:101DD000877E0895282F24712430F9F68B7F886040
:101DE000DCCF282F2471243101F78B7E8861DDCF71
:101DF000382F3171313019F78E7F8860E0CF282F6E
:101E00002171213121F78E7E8861E1CF10929102FC
:101E10001092920210929302109294020895CF921F
:101E2000DF92EF92FF92CF93DF9300D000D0CDB737
:101E3000DEB76B017C010E944711811112C00E9424
:101E4000CA1B69837A838B839C83C61AD70AE80AE4
:101E5000F90AC0929102D0929202E0929302F0921B
:101E600094020F900F900F900F90DF91CF91FF9001
:101E7000EF90DF90CF900895A4E0B0E0E2E4FFE0BF
:101E80000C942E230E944711882371F00E94CA1BD4
:101E900069837A838B839C8369817A818B819C811E
:101EA0002496E2E00C944A230E94CA1B69837A8339
:101EB0008B839C838091910290919202A0919302D6
:101EC000B091940229813A814B815C81280F391F9E
:101ED0004A1F5B1F29833A834B835C83DDCF80E0FD
:101EE000089508950E949C0B811102C00E94450C28
:101EF0000E94A70B80932C020E94B10B9093960234
:101F0000809395020E94710F0E94AC0B90E00E949A
:101F100083068091C8019091C9010E94A40608958A
:101F200008950E94900F089508950E94940F0895B7
:101F3000E82FF0E0EE55FD4F80810895089580EA86
:101F40008A95F1F7089500C008950E949F0F0895A3
:101F500008950E94A80F0895A5E0B0E0E2EBFFE02D
:101F60000C9429230E944711182F6091AC028823FA
:101F700009F445C01A821982FE01339683E0DF011D
:101F80001D928A95E9F7862F90E032977F01BF0175
:101F90008E559D4F0E947A11DE2C0F2D8823B9F0AB
:101FA0008091970290E045E050E0B7018E559D4F3B
:101FB0000E94552321E020932D02892B99F410E0F3
:101FC0000E943E02812F2596E7E00C9445238091E4
:101FD0002D028823A1F385E0D7011D928A95E9F7A8
:101FE00010922D02A0919702B0E0AE55BD4F85E052
:101FF000ED2DF02F01900D928A95E1F7E1CF70E081
:102000006E557D4F8091970290E08E559D4F0E94B6
:1020100003120E94A90FD6CFF894E82FE295EF7033
:10202000F0E041A18F7021E030E0B90102C0660FFD
:10203000771F8A95E2F7CB01962F9095942391A371
:1020400092A1892B82A3789408950F931F93CF9325
:10205000DF93C1E9D1E089918F3F11F00E940C100C
:1020600081E0C639D807B9F7CBE8D1E001E911E042
:1020700089918F3F11F00E940C100C171D07C1F7BA
:10208000DF91CF911F910F910895A0E0B0E0EBE4B4
:10209000F0E10C942823EC01D62E062F10E0C801A5
:1020A0008F569E4F7C01FC0180818F3F09F445C013
:1020B000F894E82FE295EF70F0E091A18F7021E0A5
:1020C00030E001C0220F8A95EAF7892F822B81A385
:1020D00082A12095282322A378940E94A30FEBE8E5
:1020E000F1E091E0C12C81918F3F81F0A82FA29562
:1020F000AF70A05EB0E02C9130E08F7002C03595DB
:1021000027958A95E2F72170892F211180E0C82A4E
:10211000990F81E0E139F80731F7F70180818F3FAE
:1021200011F00E940C1061E0C11001C060E08D2D23
:102130000E94A50FC00FD11FC882CDB7DEB7E8E05F
:102140000C944423809102018091020190E081115E
:1021500001C095E09093AC0285E0891B80939702C3
:102160000E9425108AE0E2EAF2E0DF01982F1D923A
:102170009A95E9F7E8E9F2E0DF011D928A95E9F71F
:1021800085E00E9407110E943B020895AAE0B0E09A
:10219000ECECF0E10C942B231A821982FE013396A9
:1021A00088E0DF011D928A95E9F7F12C8E010F5F1F
:1021B0001F4F6F2DC8010E944510F394B5E0FB122C
:1021C000F8CF4AE050E0B80188E992E00E94552338
:1021D00021E0892B99F420E06091AC0270E06E550B
:1021E0007D4F45E088E992E00E940811182F0E9477
:1021F000AC0F812B2A96E5E00C9447238AE0F80186
:10220000A8E9B2E001900D928A95E1F7E5CF089533
:10221000A0E0B0E0EEE0F1E10C942923D82EE92E05
:10222000F62E072FC42F222349F081E0809330023D
:102230000E94BE1B90932F0280932E0210913002B9
:10224000111107C010E0812FCDB7DEB7E7E00C9485
:10225000452380912E0290912F020E94E71B059743
:1022600088F3D0E0AE016D2D7E2D8F2D902F0E9432
:102270005523892B51F0AE016D2D7E2D8F2D902F82
:102280000E94622310923002DECF10E0FBCF8091DB
:102290003302811107C00E94F722882351F081E0A8
:1022A0008093330281E090913302913009F080E015
:1022B000089582E0809333020E94F222F3CF0E94BD
:1022C000471108950E945F11809302010E944711F7
:1022D00081110E94B01108950E944711811102C01E
:1022E0000E94B311089581E0909134029A3008F071
:1022F00080E008950F931F93CF93DF93EC01162F87
:10230000072F809134028A3090F4612F702FCE0114
:102310000E940012811121C0809134028F3FB1F4DC
:102320000E94BE1B909332028093310209C08091BB
:102330003102909132020E94E71B843F914028F7BE
:1023400080E0DF91CF911F910F9108958F5F80936F
:1023500034028A3028F781E0F4CF10923402FBCFA8
:102360000E940C1908950E940F190895A0E0B0E092
:10237000ECEBF1E10C942823FA0169017801C82FF4
:10238000880FDD0B3097B1F0DE0193E0AA0FBB1F81
:102390009A95E1F7AD5FBE4F11968D919C91129782
:1023A0008B5C9D4F4C9150E0E417F50708F4AF01AA
:1023B0000E946223CE010E94FA19182F8823D1F0BF
:1023C000E114F104B9F083E0CC0FDD1F8A95E1F749
:1023D000FE01ED5FFE4F438150E0E416F50608F480
:1023E000A701CD5FDE4F6C817D816B5C7D4FC601A7
:1023F0000E946223812FCDB7DEB7E8E00C9444231E
:102400000E94011308950E941A130895A8E0B0E0F5
:10241000ECE0F2E10C942C2380914C0290914D025F
:10242000A0914E02B0914F02BC01CD010E94F61B5B
:1024300011E0643671058105910520F10E943C0F81
:10244000DC01CB010296A11DB11D89839A83AB8368
:10245000BC8300E010E020E030E044E050E0BE014A
:102460006F5F7F4F82E00E94B611182F882351F0D2
:102470000E94CA1B60934C0270934D0280934E02DF
:1024800090934F02812F2896E4E00C944823AAE011
:10249000B0E0EDE4F2E10C9426237B01A0909601DC
:1024A000B090970101E010E09E012A5F3F4F40E0AD
:1024B00050E060E070E080E00E94B611182F8823A1
:1024C00009F44DC065018FEFC81AD80A80914802FF
:1024D00090914902A0914A02B0914B02BC01CD01FA
:1024E0000E94F61B6F83788789879A876436710507
:1024F0008105910560F105E010E09E012F5F3F4FDF
:1025000040E050E060E070E081E00E94B611182FDA
:1025100065E070E0C6010E946C139E8198132AC08A
:10252000112341F10E94CA1B609348027093490233
:1025300080934A0290934B0285E0FE013196A3E41A
:10254000B2E001900D928A95E1F781E014C065E058
:1025500070E0C6010E946C139E818913CCCF85E088
:10256000F5013196DE01119601900D928A95E1F701
:102570001111E2CF80E095E0E3E4F2E0D7010190B1
:102580000D929A95E1F72A96EAE00C944223A0E096
:10259000B0E0EDECF2E10C942623F82EE92EB62EF5
:1025A000A72E8A010E947311CC24C394D12C8823B6
:1025B00019F08AE0C82ED12CC1E0D0E06B2D7A2D25
:1025C0008F2D9E2DF8010995811116C02196CC16EC
:1025D000DD0694F0CC9FC001CD9F900D900D11248D
:1025E00020E030E045E34A95F1F700002F5F3F4FD0
:1025F00028173907B9F7E2CFCDB7DEB7EAE00C9478
:1026000042230F931F93CF93DF93D82FC92F8B01B2
:1026100047E452E10E94C712882339F046E052E1B4
:10262000B8018D2F9C2F0E94C712DF91CF911F916F
:102630000F9108950F931F93CF93DF93FB01C091E8
:102640009601D0919701CE01019625E0DC01019021
:102650000D922A95E1F765E070E00E946C13888383
:102660006E817F818885998500913F02109140029B
:10267000209141023091420260177107820793074F
:1026800051F060933F027093400280934102909317
:1026900042020E940F0FDF91CF911F910F91089579
:1026A0000E94D11D0E94820C0E94DE1D08950E948E
:1026B000E31D0E94960C0E94FD1D08950E94571B69
:1026C0000E94B71D0E946A0C0E9450130E9457136B
:1026D0000E94780CFBCF0895FC01680F791F8FEFE3
:1026E00091E3E617F70709F408952191822728E07E
:1026F00030E087FF08C0880F892721503109211554
:102700003105B9F7EECF880FF8CFA0E0B0E0EBE8E5
:10271000F3E10C9428236C017B0164E670E088E708
:102720000E94BB17EC0197FD11C08601EC0CFD1C4B
:10273000F801849164E670E00E942A18EC01892B6C
:1027400029F40F5F1F4F0E151F0591F70E94AC185B
:10275000CE01CDB7DEB7E8E00C94442308950E9483
:10276000AE130895EDEAF2E080E092E0DF019C0113
:102770001D9221503040E1F7F093B404E093B3048C
:102780008FEF9FEF90937602809375020895A4E0F7
:10279000B0E0EDECF3E10C942E230E94AE130E9406
:1027A000AF1390E280FF90E88093710290937002E3
:1027B0000E94B5176DE070E083EA92E00E948513F5
:1027C000892B29F080E02496E2E00C944A23809142
:1027D000710263E070E081FD28C080EA92E00E940F
:1027E0008513892B79F76DE070E080E992E00E9413
:1027F0008513892B39F70E94CA1BDC01CB01805A53
:102800009541AF4FBF4F8093AF049093B004A09316
:10281000B104B093B2040E94B21381E080937402B9
:102820008093730210927202CECF8DE992E0D7CFDF
:102830002091700236E0839FC0011124269F800DF5
:10284000911D1124811522E0920714F080E090E0A0
:1028500083559D4F9093B4048093B3040895A4E0EE
:10286000B0E0E5E3F4E10C942E2380917402811131
:1028700006C0809173022496E2E00C944A230E94E1
:10288000CA1BDC01CB01805A9541AF4FBF4F8093EB
:10289000AF049093B004A093B104B093B2048091BC
:1028A00073028111E6CF62E070E08EE892E00E9450
:1028B0008513892BF1F681E080937302DACF2F9292
:1028C0003F925F926F927F928F929F92AF92BF9250
:1028D000CF92DF92EF92FF920F931F93CF93DF93EC
:1028E00080917402882369F02091750230917602FC
:1028F0002115310531F08091720261E070E088238A
:1029000099F0DF91CF911F910F91FF90EF90DF90A1
:10291000CF90BF90AF909F908F907F906F905F907F
:102920003F902F9008958F5F082F10E01B01082E15
:1029300002C0220C331C0A94E2F7A9014221532160
:10294000452B89F3909171029170911145C09801C6
:1029500036952795369527958295880F80763FE1A5
:10296000380F80931D012093200130931E01909316
:10297000210124E630E047E050E06BE171E088E7B8
:102980000E945A18892B09F0BCCFA80125E0440FFA
:10299000551F2A95E1F78091710280FD25C04355AE
:1029A0005D4F04E610E020E230E060E488E70E943A
:1029B0008118892B09F0A5CF0E942F14E101C09541
:1029C000D0958091750290917602C823D923D09337
:1029D0007602C093750295CF880F880F880F37E075
:1029E000380F20E093E0BDCFE0E5F2E080E2DF01C8
:1029F0001D928A95E9F7ACE9B1E008E911E080EAB7
:102A0000C82E81E0D82E97E0592E772473948D91AB
:102A1000E80129918E01240F352F311D23553D4F9B
:102A2000E82FF0E0E05BFD4F80E090E0652C681A55
:102A3000872C082E01C0880C0A94EAF77901A12C92
:102A4000E701B9907E01B820662D6A19677070E0C1
:102A5000DB2D062E01C0DD0F0A94EAF79D2E71953D
:102A6000619571096770772701C0B6946A95EAF796
:102A70009B286081962A9082A39468E0A612E0CFFA
:102A8000019631968830910589F6CA16DB0609F061
:102A9000BECF04E610E020E230E040E552E085CF12
:102AA0008091730290917402911103C091E0892783
:102AB0000895882369F062E070E08CE892E00E945B
:102AC0008513892B19F08091730208951092730277
:102AD00080917302EBCF81E008950E946B150895F9
:102AE000A4E0B0E0E6E7F5E10C942E2380917402B7
:102AF0008823C9F18091AD049091AE040E94E71B38
:102B0000C29760F00E94BE1B9093AE048093AD0408
:102B100060E080E00E9418140E946D150E945F140E
:102B2000809173028823F9F00E94CA1B69837A831B
:102B30008B839C838091AF049091B004A091B104E9
:102B4000B091B20429813A814B815C81281B390BF9
:102B50004A0B5B0BDA01C9018F3F9F4FAF4FBF4755
:102B600010F40E9450152496E2E00C944A23CF936F
:102B7000DF93EC01FB018281882309F401C1C23695
:102B8000FDE5DF0709F451C0A8F5C631ECE5DE0725
:102B9000C8F4C230FCE5DF0708F45AC00E94B10B4C
:102BA0009093960280939502FE01E350FC4580913C
:102BB00095028160E331F10508F03FC0E155FC4D1D
:102BC0000C9418239E012B5F3C452930310508F0F9
:102BD0003FC00E94B10B9093960280939502FE0134
:102BE000EC5FFC45E830F10508F04AC0EE53FC4DBF
:102BF0000C941823C63A9DE5D90769F19E012E5A17
:102C00003D452330310520F50E94B10B909396028B
:102C100080939502CE3AEDE5DE0709F0B3C08091CE
:102C200096028860809396020AC00E94B10B90932E
:102C30009602809584FB809584F98093950280911B
:102C40009502909196020E94BF0B0E942C0680E094
:102C5000DF91CF9108950E94B10B909396028095D9
:102C600080FB809580F9E9CF809195028260E5CF65
:102C7000809195028460E1CF809195028860DDCFDC
:102C8000809196028160CECF809196028260CACFF9
:102C9000809195028061D1CF809195028062CDCFE5
:102CA000809195028064C9CF0E942C068091950284
:102CB0008068C3CF809195028C60BFCF80919602CF
:102CC0008360B0CF809195028E7FB7CF80919502BF
:102CD0008D7FB3CF809195028B7FAFCF809195028E
:102CE000877FABCF809196028E7F9CCF809196029A
:102CF0008D7F98CF809195028F7E9FCF8091950296
:102D00008F7D9BCF809195028F7B97CF0E942C0661
:102D1000809195028F7791CF80919502837F8DCF9F
:102D2000809196028C7F7ECF8091950282FB9927BD
:102D300090F921E0922790FB82F990FB83F97DCFF7
:102D400080919602982F909591708E7F892B90FBA1
:102D500081F968CF0E942C0690919502892F97FBEC
:102D600087F980586ACF81E00E94480C68CF80E0E4
:102D7000FBCF90919602892F877F93FF886052CF77
:102D800081E066CFCF3ADD45A1F780919602877F3B
:102D900049CFCF93DF93EB0186319C4519F50E9413
:102DA000B10A9A819923A1F08A7A91E0811101C038
:102DB00090E090937702882349F085E30E94880A87
:102DC0000E94F40A80E0DF91CF91089589E2F6CF66
:102DD00080917702882321F085E30E94900AF0CF4A
:102DE00089E2FBCF81E0EFCF0F931F93CF93DF9367
:102DF000C42FD22FFC0182818823C9F040937A022C
:102E00000E94BE1B909379028093780280E28C0F1F
:102E1000883040F4C77081E001C0880FCA95EAF796
:102E20000E94B903DF91CF911F910F9108951091E6
:102E30007A0214133BC080917802909179020E942B
:102E4000E71B889798F5C0E2CD0F1D1741F180E28E
:102E5000810F883040F4177081E001C0880F1A9507
:102E6000EAF70E94C003C83020F0802F0E94B00310
:102E7000D9CF91E08D2F877001C0990F8A95EAF71D
:102E8000892F0E94B903802F0E94B003D77081E080
:102E900001C0880FDA95EAF70E94C003C3CF802FE4
:102EA0000E94B003C83008F0BDCFF0CF80E28C0F95
:102EB000883008F0B7CFC77081E001C0880FCA958D
:102EC000EAF7EACF0F939C01CB01243F4CE534078E
:102ED000A1F190F4293DFCE53F0749F12A3D4CE57D
:102EE0003407E9F1283D3C45C1F0FC0182818111A4
:102EF00010927A0281E019C0263FFCE53F0719F1E4
:102F0000273F4CE5340729F1253F3C4571F707E29F
:102F100025EE44EE65EF7CE505C006E221EE41EECC
:102F200068ED7CE50E94F41680E00F91089507E2B9
:102F300025EE45EE69ED7CE5F5CF06E221EE40EEAB
:102F400064EF7CE5EFCF06E221EE42EE66EF7CE532
:102F5000E9CF07E225EE46EE67EF7CE5E3CF08E236
:102F600021E045EE6AED7CE5DDCF1092B9008CE002
:102F70008093B8000895A0E0B0E0E1ECF7E10C9494
:102F80002523B82EEB010E94BE1B6C01EE24E394B6
:102F9000F12CC431D10560F025E0E22EF12CCF3FB9
:102FA000DC0731F0CE0164E170E00E9404237B0174
:102FB00084EAA82E94E8992E1092BC00A092BC003E
:102FC0000E94BE1B182F092F8091BC0087FF0CC0E8
:102FD0008091B900887F8830F9F08091B900887FAE
:102FE0008031D1F00FEF08C0812F902F0E94E71B96
:102FF000E816F90648F70EEF1FEFCF3FDC07E1F2C6
:10300000C6010E94E71BC817D907B0F6C801CDB7A3
:10301000DEB7EBE00C944123B092BB009092BC0071
:103020000E94BE1B182F092F8091BC0087FF0AC089
:103030002091B900287F283111F0203499F600E062
:1030400010E0E4CF812F902F0E94E71BE816F906CD
:1030500058F7D1CF0F931F93CF93DF93EB0180935A
:10306000BB0084E88093BC000E94BE1B182F092F70
:103070008091BC0087FF11C02091B900287F81E0BA
:1030800090E0283211F480E090E0919581959109CB
:10309000DF91CF911F910F910895CF3FDC0741F34E
:1030A000812F902F0E94E71BC817D90708F78EEFD2
:1030B0009FEFEECFA0E0B0E0E0E6F8E10C9428232B
:1030C0006B018A01F22EE32E622F732F0E94BB1731
:1030D000AC01E6010C0D1D1DC017D10711F057FF03
:1030E00009C084E98093BC00CA01CDB7DEB7E8E02F
:1030F0000C9444236F2D7E2D89910E942A18AC01D7
:10310000EBCFA0E0B0E0E7E8F8E10C942823C62F6D
:103110006A017901B8010E94BB179C0197FD0DC09F
:10312000B8018C2F0E942A189C01E601EC0CFD1CB2
:10313000CE15DF0511F037FF09C084E98093BC008C
:10314000C901CDB7DEB7E8E00C944423B8018991FA
:103150000E942A189C01ECCF84E98093BC0008955A
:103160008EE14A9B03C081508111FBCF4A9BFECF69
:1031700008955A9880E28A95F1F75A9A0895FC01C9
:103180003BE03A95F1F798E020E080E031E040E163
:103190004A95F1F7880F4A9B02C08160232742E0DD
:1031A0004A95F1F7000040E14A95F1F791509111ED
:1031B000EECF90E19A95F1F799B132E03A95F1F7B7
:1031C000000040E14A95F1F792FB992790F9922788
:1031D0002081920F90830895A1E0B0E0E2EFF8E142
:1031E0000C942A2319828C017C01E60EF11C0E1529
:1031F0001F0541F481E09981911180E02196E6E07C
:103200000C9446230E94B018CE0101960E94BF186C
:10321000F80181938F01EBCF529A5A9A08955298F0
:103220005A9AEA9AE9E6F0E080818F7C80830895DB
:103230006150770B91E001C0990F6A95EAF7692F09
:1032400090E021E0611108C0992399F05A9A80E238
:103250008A95F1F75A980895362F3823332339F099
:103260005A9A922730E23A95F1F76695EBCF5A9841
:10327000F9CF5A98ECCFFF920F931F93CF93DF9320
:10328000EC018C01060F111DC017D10729F4CDB731
:10329000DEB7E5E00C944723F9900E94B91868E086
:1032A0008F2D0E941819F0CF1F920F920FB60F9218
:1032B00011240F931F932F933F934F935F936F931B
:1032C0007F938F939F93AF93BF93EF93FF93CF938E
:1032D000DF930F92CDB7DEB719820E94B018CE01EE
:1032E00001960E94BF18082F069506950695982FFF
:1032F00092959570202F2570920F292F2370969507
:103300009695920F982797708981892B81115CC0BF
:10331000043008F059C080E18A95F1F75A9A529A20
:1033200082E08A95F1F700C05A9888E0089F8001F2
:103330001124D801AD5FBE4F1696ED91FC91179701
:103340003097A9F0609196017091970114962D9194
:103350003C911597260F371F11968D919C911297CE
:10336000680F791F13964C9113978C910995F8016A
:10337000ED5FFE4F6381662351F0209196013091FD
:10338000970184819581820F931F0E943B190E94AF
:10339000B91880E18A95F1F75A9852985A9A80E1C3
:1033A0008A95F1F7F801ED5FFE4F6081662351F0D9
:1033B000209196013091970181819281820F931F14
:1033C0000E94EC180E94B0180F90DF91CF91FF91EE
:1033D000EF91BF91AF919F918F917F916F915F918D
:1033E0004F913F912F911F910F910F900FBE0F9012
:1033F0001F9018950F931F93CF93DF938C01049721
:103400000CF065C0F894529A5A9885E08A95F1F7C5
:103410000000C02FC695C570802F8570C80F8C2FF7
:103420008370C695C69593E0000F111F9A95E1F73A
:10343000C80FC8018C2BEC010E94B91800C068E0CD
:103440008C2F0E94181990E19A95F1F752985A9A88
:103450004A9B35C087E090E04A9933C0F801ED5FA0
:10346000FE4F6381662361F02091960130919701B0
:1034700084819581820F931F0E94EC18882321F18B
:103480000E94B01880E28A95F1F75A98529A90E11A
:103490009A95F1F7F801ED5FFE4F6081662351F0D8
:1034A000209196013091970181819281820F931F23
:1034B0000E943B190E94B918789481E009C000C0AD
:1034C000C7CF0197009749F4529A5A9A789480E0AE
:1034D000DF91CF911F910F91089500C0BDCF9093C0
:1034E000A1018093A00108959093810280938002AE
:1034F00008950E944711811103C080917B020895B5
:10350000E0918002F0918102309729F00190F081E2
:10351000E02D0995089580E00895E0918002F091F2
:103520008102309721F00280F381E02D0995089502
:1035300020917E0230917F022817390771F0909315
:103540007F0280937E02E0918002F09181023097A9
:1035500021F00680F781E02D0995089520917C02E5
:1035600030917D022817390771F090937D02809386
:103570007C02E0918002F0918102309721F000847A
:10358000F185E02D099508959C01AC014E5F5F4FD8
:10359000285F3F4F80E0FA0190814F5F5F4F9111AC
:1035A0008F5F24173507B9F708959C01662351F002
:1035B000FC013296285F3F4F8191861729F0E21770
:1035C000F307D1F780E0089581E008959C01FC01A4
:1035D00032968FEF90E04191461751F08F3F19F4EA
:1035E000411101C0892F9F5F9630A9F78F3F09F4E1
:1035F0000895280F311D87FD3A95F90162830895DA
:103600009C01FC013296285F3F4F8191861303C0D5
:10361000DF0111971C92E217F307B9F708950E9492
:10362000E61A08950E94001B0895FC01329686E078
:10363000DF011D928A95E9F7089508950E941D1BE8
:1036400008958F5F809382020E941E1B089583E07D
:10365000809382020E941E1B08950E94211B0895E0
:1036600081E0809382020E941E1B08950E94301BFD
:103670000895089508950E943A1B089508950895A5
:103680000E94391B0895CF930E943E1B0E94C610D2
:103690000E943F1BC0E08C2F0E94980F811105C033
:1036A000CF5FCA30C1F7CF91089581E0FCCF85B7D5
:1036B000806885BF85B7806885BF08951F921FB653
:1036C0001F9211248F939F93AF93BF938091830296
:1036D000811113C08091B5049091B604A091B704F4
:1036E000B091B8044196A11DB11D8093B50490938B
:1036F000B604A093B704B093B804BF91AF919F9163
:103700008F911F901FBE1F9018958091BD0484302B
:1037100031F10E94AF021092830288E190E020E430
:103720000FB6F894A895809360000FBE20936000B8
:1037300083B7817F846083BF83B7816083BF7894C0
:10374000889583B78E7F83BF0FB6F894A895809134
:103750006000886180936000109260000FBE089541
:103760000E942C060E94B602089582E084BD93E078
:1037700095BD9AEF97BD80936E0008952FB7F8948A
:103780008091B5049091B604A091B704B091B804AB
:103790002FBF0895A4E0B0E0E0EDFBE10C942E23F0
:1037A0008FB7F8942091B5043091B6044091B704D6
:1037B0005091B80429833A834B835C838FBF69811E
:1037C0007A818B819C812496E2E00C944A239C01AF
:1037D0004FB7F8948091B5049091B604A091B704C6
:1037E000B091B8044FBF821B930B0895A4E0B0E0E2
:1037F000ECEFFBE10C942C23462F572FBC012FB785
:10380000F8948091B5049091B604A091B704B0915A
:10381000B8042FBF8C019D01041B150B260B370B21
:10382000C901B8012496E4E00C94482378941F92CF
:103830001FB61F9211248F939F93AF93BF938091D4
:10384000B5049091B604A091B704B091B804019664
:10385000A11DB11D8093B5049093B604A093B70445
:10386000B093B804BF91AF919F918F911F901FBEED
:103870001F90189587E797E79093010880930008B9
:1038800088E19AE00FB6F894A895809360000FBE87
:1038900090936000FFCF88E19AE00FB6F894A89566
:1038A000809360000FBE90936000FFCF80918F02E5
:1038B00008950895CF93DF93D82FC92F81E0809387
:1038C000E9008FEF9091E80095FD07C095ED9A957E
:1038D000F1F7000081508111F5CF8091E80085FD5E
:1038E00003C0DF91CF91089540E050E068E070E0C0
:1038F0008D2F9C2F0E94701E8091E8008E77809300
:10390000E80088E0ED2FFC2FA7E8B2E001900D92CF
:103910008A95E1F7E6CF80938402709386026093E4
:1039200085028091BD04843001F582E08093E90036
:103930008FEF9091E80095FD07C095ED9A95F1F70E
:10394000000081508111F5CF8091E80085FF0DC006
:1039500040E050E063E070E084E892E00E94701E76
:103960008091E8008E778093E8000895BC0184E0A0
:103970000E948B1C0895BC0183E00E948B1C08955B
:1039800008958091BC04811109C00E94F81F0E9413
:1039900055208091E20084608093E20008951092A7
:1039A000BC0408950E94301B08956091B90481E021
:1039B000611101C080E00E94271B08959091BD0411
:1039C00081E0943009F080E06091B9040E942D1BE1
:1039D000089542E061EC81E00E94741F42E261ECD4
:1039E00082E00E94741F9091BD0481E0943009F040
:1039F00080E06091B9040E94211B08958091BF046A
:103A0000893089F148F4823009F4A0C0833009F488
:103A10005AC0813041F008958A3009F487C08B3054
:103A200009F46CC008958091BE04813A09F04AC03F
:103A30008091E800877F8093E8008091C204909194
:103A4000C304892B61F060E080E090E070E00E94A8
:103A5000BF1E8091E8008B778093E800089568E0AE
:103A600087E892E0F3CF8091BE04813259F58091CE
:103A7000C2049091C304029728F58091E800877FE3
:103A80008093E8008091E80082FF18C09091F300D5
:103A90008091F200029731F48091F100813011F0B1
:103AA000863021F48091F10080938F028091E800AC
:103AB0008B778093E8000E94A81F04C08091BD040A
:103AC0008111E0CF08958091BE04813AD9F78091A9
:103AD000C2049091C304892BA9F78091E800877FE5
:103AE0008093E8008091E80080FFFCCF80912E0158
:103AF0008093F1008091E8008E77DBCF8091BE0447
:103B0000813201F78091C2049091C304892BD1F6D0
:103B10008091E800877F8093E8000E94A81F809131
:103B2000C00480932E010E942C0608958091BE044B
:103B3000813241F68091E800877F8093E8000E94FF
:103B4000A81F8091C1048093900208958091BE04C3
:103B5000813A09F0B7CF8091E800877F8093E80031
:103B60008091E80080FFFCCF80919002C1CF84B7A4
:103B7000877F84BF0FB6F894A89580916000886114
:103B800080936000109260000FBE80E890E00FB656
:103B9000F89480936100909361000FBE0E94361BE1
:103BA00008950E94F81F0E945520E2EEF0E0808107
:103BB0008460808378940E94D822089582E291E004
:103BC0000E94741A08958091BD04853031F480916B
:103BD000BD04853019F00E94B01B08950E94851B1A
:103BE0008091BB04882399F30E94431B882379F3B7
:103BF0000E945A1E0E942C06EACF08950E94011EC0
:103C00000895FC01CB01DA012F2F33272330310532
:103C1000E1F058F421303105C9F122303105D9F1F4
:103C200080E090E020E030E01EC02132310521F13B
:103C300022323105A9F7892BC1F16130710581F775
:103C400082E390E023E233E00EC0CF019927E13018
:103C500069F08230910569F0E2EDF2E0892B01F71D
:103C6000849190E09F012D933C930895E0ECF2E065
:103C7000F7CFE0EBF2E0F4CF892B91F061307105E2
:103C800079F689E090E021E033E0EDCF82E190E049
:103C900021E133E0E8CF8BE390E026ED32E0E3CFA3
:103CA00089E090E028EE32E0DECF80E490E025E588
:103CB00033E0D9CF80E189BD82E189BD09B400FE3E
:103CC000FDCF8091D8008F7D8093D8008091E00057
:103CD00082608093E0008091E00081FDFCCF089538
:103CE000AF92BF92CF92DF92FF920F931F93CF9329
:103CF000DF936C01EB018A010E94C71FF82E81112E
:103D000023C00115110539F0F80180819181C81B8C
:103D1000D90BC80ED91EA12CB12C2097A9F08091E7
:103D2000E80085FD22C08091E8008E778093E8004E
:103D300001151105A1F0F801808191818A0D9B1D6B
:103D40009183808385E0F82E8F2DDF91CF911F9195
:103D50000F91FF90DF90CF90BF90AF9008950E9499
:103D6000C71F8823E1F2F82EEFCFF60181916F0192
:103D70008093F1002197FFEFAF1ABF0ACECFFC016D
:103D80009B018091C4049091C5048617970718F091
:103D9000672B61F0C90140E0009771F441110CC03C
:103DA0008091E80082FF35C080E008958091E800AE
:103DB0008E778093E800EECF2091BD042223A9F1F5
:103DC0002530A9F12091E80023FD2DC02091E800C5
:103DD00022FDE6CF2091E80020FFDECF3091F300F6
:103DE0002091F200009719F02830310558F041E099
:103DF0002830310509F040E02091E8002E7720932B
:103E0000E800CACF41914093F10001972F5F3F4FE7
:103E1000E9CF8091BD04882341F0853041F0809145
:103E2000E80083FFBDCF81E0089582E0089583E03C
:103E30000895FC019B018091C4049091C5048617EC
:103E4000970718F0672B61F0C90140E0009771F403
:103E500041110CC08091E80082FF36C080E00895D7
:103E60008091E8008E778093E800EECF2091BD042A
:103E70002223B1F12530B1F12091E80023FD2EC0BD
:103E80002091E80022FDE6CF2091E80020FFDECF60
:103E90003091F3002091F200009719F0283031059D
:103EA00058F041E02830310509F040E02091E80069
:103EB0002E772093E800CACF44914093F1003196C9
:103EC00001972F5F3F4FE8CF8091BD04882341F0D9
:103ED000853041F08091E80083FFBCCF81E00895F8
:103EE00082E0089583E00895982F973028F08F702E
:103EF0008093E90081E008959093E900242F762FC4
:103F000050E0981731F07091EC002091ED00509145
:103F1000F00021FD02C09F5FE8CF3091EB003E7FB3
:103F20003093EB003091ED003D7F3093ED00309108
:103F3000EB0031603093EB007093EC002093ED00C8
:103F40005093F0002091EE0027FDE5CF80E008952A
:103F50008091BE0487FF13C08091E80082FF06C0F5
:103F60008091E8008B778093E80004C08091BD04C5
:103F70008111F2CF08958091BD048823D9F38091F7
:103F8000E80080FFF8CF8091E8008E77ECCF209199
:103F9000E4003091E50095E6A9018091EC00817084
:103FA000882331F08091E80080FF06C080E008950A
:103FB0002091E80022FD1BC08091BD04882391F070
:103FC000853091F08091EB0085FD10C02091E400D8
:103FD0003091E5004217530701F391509111DCCF66
:103FE00084E0089582E0089583E0089581E00895D3
:103FF0000E9467200E946F20E0EEF0E080818160E7
:104000008083E8EDF0E080818F77808319BCA7ED95
:10401000B0E08C918E7F8C9380818F7E8083109214
:10402000BC0408950F931F93CF93DF930E946720E2
:104030000E946F20C8EDD0E088818F7788838881C7
:104040008068888388818F7D888319BC1092BD0425
:104050001092B9041092BB041092BA0400EE10E062
:10406000F80180818B7F808388818160888342E032
:1040700060E080E00E94741FE1EEF0E080818E7FBE
:104080008083E2EEF0E080818160808380818860BF
:104090008083F80180818E7F80838881806188831E
:1040A000DF91CF911F910F910895E8EDF0E08081AD
:1040B0008F7E8083E7EDF0E080818160808384E003
:1040C00082BF81E08093BC040E9412200895E8ED35
:1040D000F0E080818E7F80831092E200089510923C
:1040E000DA001092E10008951F920F920FB60F921E
:1040F00011242F933F934F935F936F937F938F93ED
:104100009F93AF93BF93EF93FF938091E10082FF62
:104110000BC08091E20082FF07C08091E1008B7F9D
:104120008093E1000E94D7228091DA0080FF19C0BD
:104130008091D80080FF15C08091DA008E7F809337
:10414000DA008091D90080FF94C080E189BD82E1CE
:1041500089BD09B400FEFDCF81E08093BD040E94BB
:10416000C11C8091E10080FF19C08091E20080FFB6
:1041700015C08091E2008E7F8093E2008091E20082
:1041800080618093E2008091D80080628093D800A3
:1041900019BC85E08093BD040E94D51C8091E1008C
:1041A00084FF29C08091E20084FF25C080E189BDA1
:1041B00082E189BD09B400FEFDCF8091D8008F7DDA
:1041C0008093D8008091E1008F7E8093E100809100
:1041D000E2008F7E8093E2008091E2008160809314
:1041E000E2008091B904882309F449C084E08093F7
:1041F000BD040E94DE1C8091E10083FF29C08091F4
:10420000E20083FF25C08091E100877F8093E10079
:1042100082E08093BD041092B9048091E1008E7F0A
:104220008093E1008091E2008E7F8093E200809194
:10423000E20080618093E20042E060E080E00E9462
:10424000741F8091F00088608093F0000E94D21C5F
:10425000FF91EF91BF91AF919F918F917F916F915E
:104260005F914F913F912F910F900FBE0F901F9034
:10427000189519BC1092BD040E94CF1C72CF80917A
:10428000E30087FF02C083E0B2CF81E0B0CF1F928E
:104290000F920FB60F921124FF920F931F932F933B
:1042A0003F934F935F936F937F938F939F93AF93BE
:1042B000BF93CF93DF93EF93FF9309EE10E0F801E4
:1042C0008081C091EC00C795CC27C7958F70FC2EDC
:1042D000F82A1082C0EFD0E08881877F88837894A5
:1042E0000E949021F8011082888188608883CF2DF8
:1042F000CF70C083FF91EF91DF91CF91BF91AF91CC
:104300009F918F917F916F915F914F913F912F91ED
:104310001F910F91FF900F900FBE0F901F90189557
:10432000AAE2B0E0E6E9F1E20C942D238EEB94E0F2
:10433000FC0101962091F100208324E0863C920745
:10434000B9F70E94FE1C8091E80083FF38C080917D
:10435000BE049091BF049A3090F5E92FF0E0E65347
:10436000FC4D0C941823803889F0823841F58091F7
:10437000C2048F70873018F58093E9008091EB00BC
:1043800085FB882780F91092E90006C08091BA0465
:104390009091BB04911182609091E800977F909377
:1043A000E8008093F1001092F1008091E8008E7790
:1043B00023C0811116C08091C004813011F1809119
:1043C000E80083FF0AC08091E800877F8093E800BF
:1043D0008091EB0080628093EB00AA96E3E00C945E
:1043E0004923823061F78091C004882389F01092BC
:1043F000E9008091E800877F8093E8000E94A81F71
:10440000DECF81E0933009F080E08093BB04EFCFF2
:104410008091C2048F702FEF280F263080F6809392
:10442000E9002091EB0020FFE2CF933031F480913E
:10443000EB0080628093EB00DACF9091EB0090610B
:104440009093EB0021E030E0A90102C0440F551F1A
:104450008A95E2F74093EA001092EA008091EB001F
:104460008860E8CF8111ABCF1091C0041F77809195
:10447000E3008078812B8093E3008091E800877FC0
:104480008093E8000E94A81F8091E80080FFFCCF85
:104490008091E30080688093E30083E0111101C004
:1044A00082E08093BD048BCF8058823008F087CFA4
:1044B0008091C0049091C1048C3D53E0950799F51B
:1044C00083E08A838AE289834FB7F894DE011396EA
:1044D00020E03EE051E2E32FF0E05093570084915A
:1044E00020FF03C082958F703F5F8F708A30C8F0C5
:1044F000895C90E08D939D932F5F243161F74FBFCE
:104500008091E800877F8093E8006AE270E0CE0146
:1045100001960E94BF1E8091E8008B778093E8008F
:104520004ECF805DE6CF6091C2047091C304AE01AE
:104530004F5F5F4F0E94FE1DBC01892B09F43FCFE6
:104540008091E800877F8093E80089819A810E94AA
:10455000191FE1CF803809F032CF8091E800877FC2
:104560008093E8008091B9048093F1001ECF8111FF
:1045700026CF9091C004923008F021CF8091E800BE
:10458000877F8093E8009093B9040E94A81F8091D0
:10459000B904882331F084E08093BD040E94E91CB3
:1045A0000ECF8091E30087FDF6CF81E0F5CF08952F
:1045B000CF938091BD04882399F08091E900C09148
:1045C000EC00C795CC27C7958F70C82B1092E900D7
:1045D0008091E80083FD0E949021CF70C093E90094
:1045E000CF9108950E94F81F1092BD040895E8ED40
:1045F000F0E08081806180838AE18A95F1F700C0D4
:104600008091D90081700895AA1BBB1B51E107C09E
:10461000AA1FBB1FA617B70710F0A61BB70B881F52
:10462000991F5A95A9F780959095BC01CD010895E1
:10463000EE0FFF1F0590F491E02D09942F923F9209
:104640004F925F926F927F928F929F92AF92BF92A2
:10465000CF92DF92EF92FF920F931F93CF93DF934E
:10466000CDB7DEB7CA1BDB0B0FB6F894DEBF0FBEAB
:10467000CDBF09942A88398848885F846E847D84F8
:104680008C849B84AA84B984C884DF80EE80FD80FA
:104690000C811B81AA81B981CE0FD11D0FB6F89470
:1046A000DEBF0FBECDBFED010895FB01DC0104C0EC
:1046B0008D910190801921F441505040C8F7881B1A
:1046C000990B0895FB01DC0102C001900D9241504D
:1046D0005040D8F70895F999FECF92BD81BDF89A60
:1046E000992780B50895A8E1B0E042E050E00C942D
:1046F0009F23262FF999FECF92BD81BDF89A01978D
:1047000000B4021639F01FBA20BD0FB6F894FA9A19
:10471000F99A0FBE08950396272F0E947A230E94CC
:104720007923252F0E947A23242F0C947A23019633
:10473000272F0E947A230C947923DC01CB01FC0102
:10474000F999FECF06C0F2BDE1BDF89A319600B4EA
:104750000D9241505040B8F70895F894FFCF3416A9
:1047600038163C1648164C16501654165A16621631
:1047700066166A166E167A167E16821686168C16BF
:10478000AA1694164416721676165E169016A01681
:10479000B316B716B321D921DF21D921DF21322267
:0847A0005422DF21AA22B722F6
:1047A8000E020100000001000000000000000501E9
:1047B80000000004060000000000000021007F2225
:1047C8000003561C5A1CC01CBB1CB61C591C01E219
:1047D80000E900EA00B500B600B700CD008301CCBF
:1047E800008A019201940121022302240225022653
:1047F8000227022A02B300B4006F007000E200E949
:1048080000EA00B500B600B700CD008301CC008AED
:104818000192019401210223022402250226022783
:10482800022A02B300B4006F007000F6F731333289
:10483800366697C634353502000810181810080077
:00000001FF
